:100000000C9446000C945D000C945D000C945D0013
:100010000C945D000C945D000C945D000C945D00EC
:100020000C945D000C945D000C945D000C945D00DC
:100030000C945D000C945D000C945D000C945D00CC
:100040000C945D000C945D000C945D000C945D00BC
:100050000C945D000C945F000C945D000C945D00AA
:100060000C945D000C945D000C945D000C945D009C
:100070000C945D000C945D000C945D000C945D008C
:100080000C945D000C945D000C945D0011241FBE67
:10009000CFEFD0E1DEBFCDBF11E0A0E0B1E0E8EFEF
:1000A000F0E000E00BBF02C007900D92A030B10756
:1000B000D9F70E9471000C947A000C9400001F92F2
:1000C0000F920FB60F9211248F9384B182BB85B12A
:1000D00083B9349A369A8F910F900FBE0F901F906C
:1000E00018958FEF81BB82B98BEC86B981E087B917
:0800F0007894FFCFF894FFCFD4
:00000001FF
