:100000000C9446000C945D000C945D000C945D0013
:100010000C945D000C945D000C945D000C945D00EC
:100020000C945D000C945D000C945D000C945D00DC
:100030000C945D000C945D000C945D000C945D00CC
:100040000C945D000C945D000C945D000C945D00BC
:100050000C945D000C945D000C945D000C945D00AC
:100060000C945D000C945D000C945D000C945D009C
:100070000C945D000C945D000C945D000C945D008C
:100080000C945D000C945D000C945D0011241FBE67
:10009000CFEFD0E1DEBFCDBF11E0A0E0B1E0E4E4FE
:1000A000F2E000E00BBF02C007900D92AA30B1074A
:1000B000D9F70E94D9000C9420010C940000982FCD
:1000C000907F946098BB20ED37E0F9013197F1F70C
:1000D000907F98BBF9013197F1F78295807F84601A
:1000E00088BBF9013197F1F7807F88BBC90101977F
:1000F000F1F708958FEF87BB34E338BB80ED97E0CD
:10010000FC013197F1F720E328BBFC013197F1F7AF
:1001100038BBFC013197F1F728BBFC013197F1F7AF
:1001200038BBFC013197F1F728BBFC013197F1F79F
:1001300024E228BBFC013197F1F720E228BB0197AC
:10014000F1F788E20E945F0081E00E945F0086E094
:100150000E945F008CE00E945F0080E80E945F00C8
:100160000895982F907F956098BB20ED37E0F901B6
:100170003197F1F7917F98BBF9013197F1F78295AB
:10018000807F856088BBF9013197F1F7817F88BB5B
:10019000C9010197F1F70895CF93DF93EC0103C0F4
:1001A00021960E94B10088818823D1F7DF91CF91F9
:1001B0000895DF93CF93CDB7DEB764970FB6F89469
:1001C000DEBF0FBECDBFDE011196E0E0F1E088E0BA
:1001D00001900D928150E1F71A8619860E947A00EB
:1001E00020E030E0BE016F5F7F4F40E355E73FBB4B
:1001F0002EBB8CB3FB01E20FF31F80818DBBE29A13
:10020000E19ACA010197F1F72F5F3F4F273031057F
:1002100071F720E030E0AE01455F5F4F3FBB2EBB82
:100220008CB3E09A8DB3FA01E20FF31F80832F5F46
:100230003F4F2730310591F7CA010E94CC00FFCF14
:04024000F894FFCF60
:0A02440077656C636F6D65000000C4
:00000001FF
