:100000000C9446000C945D000C945D000C945D0013
:100010000C945D000C945D000C945D000C945D00EC
:100020000C945D000C945D000C945D000C945D00DC
:100030000C945D000C945D000C945D000C945D00CC
:100040000C945D000C945D000C945D000C945D00BC
:100050000C945D000C945D000C945D000C945D00AC
:100060000C945D000C945D000C945D000C945D009C
:100070000C945D000C945D000C945D000C945D008C
:100080000C945D000C945D000C945D0011241FBE67
:10009000CFEFD0E1DEBFCDBF11E0A0E0B1E0E4EFF3
:1000A000F0E000E00BBF02C007900D92A030B10756
:1000B000D9F70E945F000C9478000C94000089E14D
:1000C00089B988E18AB91FBA1EBA8CB38AE68DBB9A
:1000D000E29AE19A80E395E70197F1F71FBA1EBA19
:1000E0008CB3E09A5E9BFECF5E9A8DB38CB9FFCF46
:0400F000F894FFCFB2
:00000001FF
