:100000000C9446000C945D000C945D000C945D0013
:100010000C945D000C945D000C945D000C945D00EC
:100020000C945D000C945D000C945D000C945D00DC
:100030000C945D000C945D000C945D000C945D00CC
:100040000C945D000C945D000C945D000C945D00BC
:100050000C945D000C945D000C945D000C945D00AC
:100060000C945D000C945D000C945D000C945D009C
:100070000C945D000C945D000C945D000C945D008C
:100080000C945D000C945D000C945D0011241FBE67
:10009000CFEFD0E1DEBFCDBF11E0A0E0B1E0EAEFED
:1000A000F3E000E00BBF02C007900D92AE32B10743
:1000B000D9F70E948C010C94FB010C940000982F3E
:1000C000907F946098BB20ED37E0F9013197F1F70C
:1000D000907F98BBF9013197F1F78295807F84601A
:1000E00088BBF9013197F1F7807F88BBC90101977F
:1000F000F1F708958FEF87BB34E338BB80ED97E0CD
:10010000FC013197F1F720E328BBFC013197F1F7AF
:1001100038BBFC013197F1F728BBFC013197F1F7AF
:1001200038BBFC013197F1F728BBFC013197F1F79F
:1001300024E228BBFC013197F1F720E228BB0197AC
:10014000F1F788E20E945F0081E00E945F0086E094
:100150000E945F008CE00E945F0080E80E945F00C8
:100160000895982F907F956098BB20ED37E0F901B6
:100170003197F1F7917F98BBF9013197F1F78295AB
:10018000807F856088BBF9013197F1F7817F88BB5B
:10019000C9010197F1F70895CF93DF93EC0103C0F4
:1001A00021960E94B10088818823D1F7DF91CF91F9
:1001B00008958FE080936100809162008160809358
:1001C0006200809162008D7F809362008091620066
:1001D0008B7F8093620080916200877F80936200B2
:1001E000049B04C00499FECF80E30895059B04C0DE
:1001F0000599FECF84E30895069B04C00699FECFBF
:1002000088E30895079B04C00799FECF83E608950D
:10021000809162008E7F8093620080916200826094
:1002200080936200809162008B7F80936200809156
:100230006200877F80936200049B04C00499FECF14
:1002400081E30895059B04C00599FECF85E30895D9
:10025000069B04C00699FECF89E30895079B04C05E
:100260000799FECF84E60895809162008E7F809387
:100270006200809162008D7F8093620080916200B5
:1002800084608093620080916200877F8093620027
:10029000049B04C00499FECF82E30895059B04C02B
:1002A0000599FECF86E30895069B04C00699FECF0C
:1002B00081E60895079B04C00799FECF85E608955F
:1002C000809162008E7F80936200809162008D7FBA
:1002D00080936200809162008B7F809362008091A6
:1002E0006200886080936200049B04C00499FECF82
:1002F00083E30895059B04C00599FECF87E3089525
:10030000069B04C00699FECF82E60895079B54CF52
:100310000799FECF86E60895AF92BF92CF92DF9203
:10032000EF92FF920F931F93DF93CF93CDB7DEB77A
:10033000A8970FB6F894DEBF0FBECDBF81E392E35E
:10034000A3E3B0E08D8B9E8BAF8BB88FFE017996C7
:1003500080E1DF011D928A95E9F70E947A007E0113
:100360000894E11CF11C95E1A92EB12CAC0EBD1E28
:1003700084E6C82ED12C81E00E945F0080E091E0ED
:100380000E94CC0080EC0E945F0087010E94D9008F
:10039000863651F481E00E945F00C701B5010E94DA
:1003A000F201009741F416C0F80181938F018AE2AF
:1003B0000E94B100EBCF81E00E945F008FE091E0EE
:1003C0000E94CC0088E893E1F6013197F1F701979C
:1003D000D9F7D1CF81E00E945F008EE191E00E94C9
:1003E000CC00FFCFFB01DC018D9101908019011041
:0A03F000D9F3990B0895F894FFCF9C
:1003FA00656E7465722070617373776F72640057EB
:10040A00726F6E672050617373776F726400416315
:0E041A0063657373204772616E746564000041
:00000001FF
