:100000000C9446000C945D000C945D000C945D0013
:100010000C945D000C945D000C945D000C945D00EC
:100020000C945D000C945D000C945D000C945D00DC
:100030000C945D000C945D000C945D000C945D00CC
:100040000C945D000C945D000C945D000C945D00BC
:100050000C945D000C945D000C945D000C945D00AC
:100060000C945D000C945D000C945D000C945D009C
:100070000C945D000C945D000C945D000C945D008C
:100080000C945D000C945D000C945D0011241FBE67
:10009000CFEFD0E1DEBFCDBF11E0A0E0B1E0ECEEEC
:1000A000F0E000E00BBF02C007900D92A030B10756
:1000B000D9F70E946B000C9474000C94000087E048
:1000C00087BB81E58DB9C09A0895C0988FB9779B99
:1000D000FECFC09A089587E087BB81E58DB9C09AAD
:0C00E0008FEF0E946500FFCFF894FFCF67
:00000001FF
