
spi.elf:     file format elf32-avr

Sections:
Idx Name          Size      VMA       LMA       File off  Algn
  0 .text         000000ec  00000000  00000000  00000054  2**1
                  CONTENTS, ALLOC, LOAD, READONLY, CODE
  1 .debug_aranges 00000020  00000000  00000000  00000140  2**0
                  CONTENTS, READONLY, DEBUGGING
  2 .debug_pubnames 00000033  00000000  00000000  00000160  2**0
                  CONTENTS, READONLY, DEBUGGING
  3 .debug_info   000000be  00000000  00000000  00000193  2**0
                  CONTENTS, READONLY, DEBUGGING
  4 .debug_abbrev 0000008e  00000000  00000000  00000251  2**0
                  CONTENTS, READONLY, DEBUGGING
  5 .debug_line   000000c9  00000000  00000000  000002df  2**0
                  CONTENTS, READONLY, DEBUGGING
  6 .debug_frame  00000040  00000000  00000000  000003a8  2**2
                  CONTENTS, READONLY, DEBUGGING
  7 .debug_str    00000069  00000000  00000000  000003e8  2**0
                  CONTENTS, READONLY, DEBUGGING

Disassembly of section .text:

00000000 <__vectors>:
   0:	0c 94 46 00 	jmp	0x8c	; 0x8c <__ctors_end>
   4:	0c 94 5d 00 	jmp	0xba	; 0xba <__bad_interrupt>
   8:	0c 94 5d 00 	jmp	0xba	; 0xba <__bad_interrupt>
   c:	0c 94 5d 00 	jmp	0xba	; 0xba <__bad_interrupt>
  10:	0c 94 5d 00 	jmp	0xba	; 0xba <__bad_interrupt>
  14:	0c 94 5d 00 	jmp	0xba	; 0xba <__bad_interrupt>
  18:	0c 94 5d 00 	jmp	0xba	; 0xba <__bad_interrupt>
  1c:	0c 94 5d 00 	jmp	0xba	; 0xba <__bad_interrupt>
  20:	0c 94 5d 00 	jmp	0xba	; 0xba <__bad_interrupt>
  24:	0c 94 5d 00 	jmp	0xba	; 0xba <__bad_interrupt>
  28:	0c 94 5d 00 	jmp	0xba	; 0xba <__bad_interrupt>
  2c:	0c 94 5d 00 	jmp	0xba	; 0xba <__bad_interrupt>
  30:	0c 94 5d 00 	jmp	0xba	; 0xba <__bad_interrupt>
  34:	0c 94 5d 00 	jmp	0xba	; 0xba <__bad_interrupt>
  38:	0c 94 5d 00 	jmp	0xba	; 0xba <__bad_interrupt>
  3c:	0c 94 5d 00 	jmp	0xba	; 0xba <__bad_interrupt>
  40:	0c 94 5d 00 	jmp	0xba	; 0xba <__bad_interrupt>
  44:	0c 94 5d 00 	jmp	0xba	; 0xba <__bad_interrupt>
  48:	0c 94 5d 00 	jmp	0xba	; 0xba <__bad_interrupt>
  4c:	0c 94 5d 00 	jmp	0xba	; 0xba <__bad_interrupt>
  50:	0c 94 5d 00 	jmp	0xba	; 0xba <__bad_interrupt>
  54:	0c 94 5d 00 	jmp	0xba	; 0xba <__bad_interrupt>
  58:	0c 94 5d 00 	jmp	0xba	; 0xba <__bad_interrupt>
  5c:	0c 94 5d 00 	jmp	0xba	; 0xba <__bad_interrupt>
  60:	0c 94 5d 00 	jmp	0xba	; 0xba <__bad_interrupt>
  64:	0c 94 5d 00 	jmp	0xba	; 0xba <__bad_interrupt>
  68:	0c 94 5d 00 	jmp	0xba	; 0xba <__bad_interrupt>
  6c:	0c 94 5d 00 	jmp	0xba	; 0xba <__bad_interrupt>
  70:	0c 94 5d 00 	jmp	0xba	; 0xba <__bad_interrupt>
  74:	0c 94 5d 00 	jmp	0xba	; 0xba <__bad_interrupt>
  78:	0c 94 5d 00 	jmp	0xba	; 0xba <__bad_interrupt>
  7c:	0c 94 5d 00 	jmp	0xba	; 0xba <__bad_interrupt>
  80:	0c 94 5d 00 	jmp	0xba	; 0xba <__bad_interrupt>
  84:	0c 94 5d 00 	jmp	0xba	; 0xba <__bad_interrupt>
  88:	0c 94 5d 00 	jmp	0xba	; 0xba <__bad_interrupt>

0000008c <__ctors_end>:
  8c:	11 24       	eor	r1, r1
  8e:	1f be       	out	0x3f, r1	; 63
  90:	cf ef       	ldi	r28, 0xFF	; 255
  92:	d0 e1       	ldi	r29, 0x10	; 16
  94:	de bf       	out	0x3e, r29	; 62
  96:	cd bf       	out	0x3d, r28	; 61

00000098 <__do_copy_data>:
  98:	11 e0       	ldi	r17, 0x01	; 1
  9a:	a0 e0       	ldi	r26, 0x00	; 0
  9c:	b1 e0       	ldi	r27, 0x01	; 1
  9e:	ec ee       	ldi	r30, 0xEC	; 236
  a0:	f0 e0       	ldi	r31, 0x00	; 0
  a2:	00 e0       	ldi	r16, 0x00	; 0
  a4:	0b bf       	out	0x3b, r16	; 59
  a6:	02 c0       	rjmp	.+4      	; 0xac <__do_copy_data+0x14>
  a8:	07 90       	elpm	r0, Z+
  aa:	0d 92       	st	X+, r0
  ac:	a0 30       	cpi	r26, 0x00	; 0
  ae:	b1 07       	cpc	r27, r17
  b0:	d9 f7       	brne	.-10     	; 0xa8 <__do_copy_data+0x10>
  b2:	0e 94 6b 00 	call	0xd6	; 0xd6 <main>
  b6:	0c 94 74 00 	jmp	0xe8	; 0xe8 <_exit>

000000ba <__bad_interrupt>:
  ba:	0c 94 00 00 	jmp	0	; 0x0 <__vectors>

000000be <spi_init>:
#include<avr/io.h>
#include<util/delay.h>

void spi_init()
{
	DDRB=(1<<PB0)|(1<<PB1)|(1<<PB2);
  be:	87 e0       	ldi	r24, 0x07	; 7
  c0:	87 bb       	out	0x17, r24	; 23
	SPCR=(1<<SPE)|(1<<MSTR)|(1<<SPR0);
  c2:	81 e5       	ldi	r24, 0x51	; 81
  c4:	8d b9       	out	0x0d, r24	; 13
	PORTB|=(1<<0);
  c6:	c0 9a       	sbi	0x18, 0	; 24
}
  c8:	08 95       	ret

000000ca <spi_tx>:

void spi_tx(unsigned char c)
{
	PORTB&=~(1<<0);
  ca:	c0 98       	cbi	0x18, 0	; 24
	SPDR=c;
  cc:	8f b9       	out	0x0f, r24	; 15
	while(!(SPSR&0X80));
  ce:	77 9b       	sbis	0x0e, 7	; 14
  d0:	fe cf       	rjmp	.-4      	; 0xce <spi_tx+0x4>
	PORTB|=(1<<0);
  d2:	c0 9a       	sbi	0x18, 0	; 24
}
  d4:	08 95       	ret

000000d6 <main>:
#include<avr/io.h>
#include<util/delay.h>

void spi_init()
{
	DDRB=(1<<PB0)|(1<<PB1)|(1<<PB2);
  d6:	87 e0       	ldi	r24, 0x07	; 7
  d8:	87 bb       	out	0x17, r24	; 23
	SPCR=(1<<SPE)|(1<<MSTR)|(1<<SPR0);
  da:	81 e5       	ldi	r24, 0x51	; 81
  dc:	8d b9       	out	0x0d, r24	; 13
	PORTB|=(1<<0);
  de:	c0 9a       	sbi	0x18, 0	; 24
	PORTB|=(1<<0);
}
void main()
{
	spi_init();
	spi_tx(0xff);
  e0:	8f ef       	ldi	r24, 0xFF	; 255
  e2:	0e 94 65 00 	call	0xca	; 0xca <spi_tx>
  e6:	ff cf       	rjmp	.-2      	; 0xe6 <main+0x10>

000000e8 <_exit>:
  e8:	f8 94       	cli

000000ea <__stop_program>:
  ea:	ff cf       	rjmp	.-2      	; 0xea <__stop_program>
