:100000000C9446000C945D000C945D000C945D0013
:100010000C945D000C945D000C945D000C945D00EC
:100020000C945D000C945D000C945D000C945D00DC
:100030000C945D000C945D000C945D000C945D00CC
:100040000C945D000C945D000C945D000C945D00BC
:100050000C945D000C945D000C945D000C945D00AC
:100060000C945D000C945D000C945D000C945D009C
:100070000C945D000C945D000C945D000C945D008C
:100080000C945D000C945D000C945D0011241FBE67
:10009000CFEFD0E1DEBFCDBF11E0A0E0B1E0EAEEEE
:1000A000F0E000E00BBF02C007900D92A030B10756
:1000B000D9F70E9468000C9473000C94000088E04B
:1000C00087BB81E48DB90895779BFECF8FB10895EA
:1000D0008FEF82B988E087BB81E48DB9779BFECF33
:0A00E0008FB183B9FBCFF894FFCF76
:00000001FF
