
spi1m.elf:     file format elf32-avr

Sections:
Idx Name          Size      VMA       LMA       File off  Algn
  0 .data         00000002  00800100  00000130  000001a4  2**0
                  CONTENTS, ALLOC, LOAD, DATA
  1 .text         00000130  00000000  00000000  00000074  2**1
                  CONTENTS, ALLOC, LOAD, READONLY, CODE
  2 .debug_aranges 00000020  00000000  00000000  000001a6  2**0
                  CONTENTS, READONLY, DEBUGGING
  3 .debug_pubnames 00000039  00000000  00000000  000001c6  2**0
                  CONTENTS, READONLY, DEBUGGING
  4 .debug_info   00000191  00000000  00000000  000001ff  2**0
                  CONTENTS, READONLY, DEBUGGING
  5 .debug_abbrev 00000122  00000000  00000000  00000390  2**0
                  CONTENTS, READONLY, DEBUGGING
  6 .debug_line   000001a9  00000000  00000000  000004b2  2**0
                  CONTENTS, READONLY, DEBUGGING
  7 .debug_frame  00000040  00000000  00000000  0000065c  2**2
                  CONTENTS, READONLY, DEBUGGING
  8 .debug_str    000000ae  00000000  00000000  0000069c  2**0
                  CONTENTS, READONLY, DEBUGGING
  9 .debug_loc    00000050  00000000  00000000  0000074a  2**0
                  CONTENTS, READONLY, DEBUGGING
 10 .debug_ranges 00000048  00000000  00000000  0000079a  2**0
                  CONTENTS, READONLY, DEBUGGING

Disassembly of section .text:

00000000 <__vectors>:
   0:	0c 94 46 00 	jmp	0x8c	; 0x8c <__ctors_end>
   4:	0c 94 5d 00 	jmp	0xba	; 0xba <__bad_interrupt>
   8:	0c 94 5d 00 	jmp	0xba	; 0xba <__bad_interrupt>
   c:	0c 94 5d 00 	jmp	0xba	; 0xba <__bad_interrupt>
  10:	0c 94 5d 00 	jmp	0xba	; 0xba <__bad_interrupt>
  14:	0c 94 5d 00 	jmp	0xba	; 0xba <__bad_interrupt>
  18:	0c 94 5d 00 	jmp	0xba	; 0xba <__bad_interrupt>
  1c:	0c 94 5d 00 	jmp	0xba	; 0xba <__bad_interrupt>
  20:	0c 94 5d 00 	jmp	0xba	; 0xba <__bad_interrupt>
  24:	0c 94 5d 00 	jmp	0xba	; 0xba <__bad_interrupt>
  28:	0c 94 5d 00 	jmp	0xba	; 0xba <__bad_interrupt>
  2c:	0c 94 5d 00 	jmp	0xba	; 0xba <__bad_interrupt>
  30:	0c 94 5d 00 	jmp	0xba	; 0xba <__bad_interrupt>
  34:	0c 94 5d 00 	jmp	0xba	; 0xba <__bad_interrupt>
  38:	0c 94 5d 00 	jmp	0xba	; 0xba <__bad_interrupt>
  3c:	0c 94 5d 00 	jmp	0xba	; 0xba <__bad_interrupt>
  40:	0c 94 5d 00 	jmp	0xba	; 0xba <__bad_interrupt>
  44:	0c 94 5d 00 	jmp	0xba	; 0xba <__bad_interrupt>
  48:	0c 94 5d 00 	jmp	0xba	; 0xba <__bad_interrupt>
  4c:	0c 94 5d 00 	jmp	0xba	; 0xba <__bad_interrupt>
  50:	0c 94 5d 00 	jmp	0xba	; 0xba <__bad_interrupt>
  54:	0c 94 5d 00 	jmp	0xba	; 0xba <__bad_interrupt>
  58:	0c 94 5d 00 	jmp	0xba	; 0xba <__bad_interrupt>
  5c:	0c 94 5d 00 	jmp	0xba	; 0xba <__bad_interrupt>
  60:	0c 94 5d 00 	jmp	0xba	; 0xba <__bad_interrupt>
  64:	0c 94 5d 00 	jmp	0xba	; 0xba <__bad_interrupt>
  68:	0c 94 5d 00 	jmp	0xba	; 0xba <__bad_interrupt>
  6c:	0c 94 5d 00 	jmp	0xba	; 0xba <__bad_interrupt>
  70:	0c 94 5d 00 	jmp	0xba	; 0xba <__bad_interrupt>
  74:	0c 94 5d 00 	jmp	0xba	; 0xba <__bad_interrupt>
  78:	0c 94 5d 00 	jmp	0xba	; 0xba <__bad_interrupt>
  7c:	0c 94 5d 00 	jmp	0xba	; 0xba <__bad_interrupt>
  80:	0c 94 5d 00 	jmp	0xba	; 0xba <__bad_interrupt>
  84:	0c 94 5d 00 	jmp	0xba	; 0xba <__bad_interrupt>
  88:	0c 94 5d 00 	jmp	0xba	; 0xba <__bad_interrupt>

0000008c <__ctors_end>:
  8c:	11 24       	eor	r1, r1
  8e:	1f be       	out	0x3f, r1	; 63
  90:	cf ef       	ldi	r28, 0xFF	; 255
  92:	d0 e1       	ldi	r29, 0x10	; 16
  94:	de bf       	out	0x3e, r29	; 62
  96:	cd bf       	out	0x3d, r28	; 61

00000098 <__do_copy_data>:
  98:	11 e0       	ldi	r17, 0x01	; 1
  9a:	a0 e0       	ldi	r26, 0x00	; 0
  9c:	b1 e0       	ldi	r27, 0x01	; 1
  9e:	e0 e3       	ldi	r30, 0x30	; 48
  a0:	f1 e0       	ldi	r31, 0x01	; 1
  a2:	00 e0       	ldi	r16, 0x00	; 0
  a4:	0b bf       	out	0x3b, r16	; 59
  a6:	02 c0       	rjmp	.+4      	; 0xac <__do_copy_data+0x14>
  a8:	07 90       	elpm	r0, Z+
  aa:	0d 92       	st	X+, r0
  ac:	a2 30       	cpi	r26, 0x02	; 2
  ae:	b1 07       	cpc	r27, r17
  b0:	d9 f7       	brne	.-10     	; 0xa8 <__do_copy_data+0x10>
  b2:	0e 94 6b 00 	call	0xd6	; 0xd6 <main>
  b6:	0c 94 96 00 	jmp	0x12c	; 0x12c <_exit>

000000ba <__bad_interrupt>:
  ba:	0c 94 00 00 	jmp	0	; 0x0 <__vectors>

000000be <spi_init>:
#include<avr/io.h>
#include<util/delay.h>
int a=0x01;
void spi_init()
{
	DDRB=(1<<PB0)|(1<<PB1)|(1<<PB2);//0x07
  be:	87 e0       	ldi	r24, 0x07	; 7
  c0:	87 bb       	out	0x17, r24	; 23
	SPCR=(1<<SPE)|(1<<MSTR)|(1<<SPR0);
  c2:	81 e5       	ldi	r24, 0x51	; 81
  c4:	8d b9       	out	0x0d, r24	; 13
	PORTB|=(1<<0);
  c6:	c0 9a       	sbi	0x18, 0	; 24
}
  c8:	08 95       	ret

000000ca <spi_tx>:

void spi_tx(int c)
{
	PORTB&=~(1<<0);
  ca:	c0 98       	cbi	0x18, 0	; 24
	SPDR=c;
  cc:	8f b9       	out	0x0f, r24	; 15
	while(!(SPSR&0X80));
  ce:	77 9b       	sbis	0x0e, 7	; 14
  d0:	fe cf       	rjmp	.-4      	; 0xce <spi_tx+0x4>
	PORTB|=(1<<0);
  d2:	c0 9a       	sbi	0x18, 0	; 24
}
  d4:	08 95       	ret

000000d6 <main>:
void main()
{
  d6:	0f 93       	push	r16
  d8:	1f 93       	push	r17
  da:	cf 93       	push	r28
  dc:	df 93       	push	r29
#include<avr/io.h>
#include<util/delay.h>
int a=0x01;
void spi_init()
{
	DDRB=(1<<PB0)|(1<<PB1)|(1<<PB2);//0x07
  de:	87 e0       	ldi	r24, 0x07	; 7
  e0:	87 bb       	out	0x17, r24	; 23
	SPCR=(1<<SPE)|(1<<MSTR)|(1<<SPR0);
  e2:	81 e5       	ldi	r24, 0x51	; 81
  e4:	8d b9       	out	0x0d, r24	; 13
	PORTB|=(1<<0);
  e6:	c0 9a       	sbi	0x18, 0	; 24
    milliseconds can be achieved.
 */
void
_delay_loop_2(uint16_t __count)
{
	__asm__ volatile (
  e8:	c0 e3       	ldi	r28, 0x30	; 48
  ea:	d5 e7       	ldi	r29, 0x75	; 117
	_delay_ms(30);
	if(a==0x80)
	{
	a=0x80;
	_delay_ms(30);
	a=0x01;
  ec:	01 e0       	ldi	r16, 0x01	; 1
  ee:	10 e0       	ldi	r17, 0x00	; 0
void main()
{
	spi_init();
	while(1)
	{
	spi_tx(a);
  f0:	80 91 00 01 	lds	r24, 0x0100
  f4:	90 91 01 01 	lds	r25, 0x0101
  f8:	0e 94 65 00 	call	0xca	; 0xca <spi_tx>
	a=a<<1;
  fc:	80 91 00 01 	lds	r24, 0x0100
 100:	90 91 01 01 	lds	r25, 0x0101
 104:	88 0f       	add	r24, r24
 106:	99 1f       	adc	r25, r25
 108:	90 93 01 01 	sts	0x0101, r25
 10c:	80 93 00 01 	sts	0x0100, r24
 110:	fe 01       	movw	r30, r28
 112:	31 97       	sbiw	r30, 0x01	; 1
 114:	f1 f7       	brne	.-4      	; 0x112 <main+0x3c>
	_delay_ms(30);
	if(a==0x80)
 116:	80 38       	cpi	r24, 0x80	; 128
 118:	91 05       	cpc	r25, r1
 11a:	51 f7       	brne	.-44     	; 0xf0 <main+0x1a>
 11c:	ce 01       	movw	r24, r28
 11e:	01 97       	sbiw	r24, 0x01	; 1
 120:	f1 f7       	brne	.-4      	; 0x11e <main+0x48>
	{
	a=0x80;
	_delay_ms(30);
	a=0x01;
 122:	10 93 01 01 	sts	0x0101, r17
 126:	00 93 00 01 	sts	0x0100, r16
 12a:	e2 cf       	rjmp	.-60     	; 0xf0 <main+0x1a>

0000012c <_exit>:
 12c:	f8 94       	cli

0000012e <__stop_program>:
 12e:	ff cf       	rjmp	.-2      	; 0x12e <__stop_program>
