
SWITCH1.elf:     file format elf32-avr

Sections:
Idx Name          Size      VMA       LMA       File off  Algn
  0 .text         000000de  00000000  00000000  00000054  2**1
                  CONTENTS, ALLOC, LOAD, READONLY, CODE
  1 .debug_aranges 00000020  00000000  00000000  00000132  2**0
                  CONTENTS, READONLY, DEBUGGING
  2 .debug_pubnames 0000001b  00000000  00000000  00000152  2**0
                  CONTENTS, READONLY, DEBUGGING
  3 .debug_info   00000071  00000000  00000000  0000016d  2**0
                  CONTENTS, READONLY, DEBUGGING
  4 .debug_abbrev 0000003d  00000000  00000000  000001de  2**0
                  CONTENTS, READONLY, DEBUGGING
  5 .debug_line   0000008b  00000000  00000000  0000021b  2**0
                  CONTENTS, READONLY, DEBUGGING
  6 .debug_frame  00000020  00000000  00000000  000002a8  2**2
                  CONTENTS, READONLY, DEBUGGING
  7 .debug_str    0000005d  00000000  00000000  000002c8  2**0
                  CONTENTS, READONLY, DEBUGGING

Disassembly of section .text:

00000000 <__vectors>:
   0:	0c 94 46 00 	jmp	0x8c	; 0x8c <__ctors_end>
   4:	0c 94 5d 00 	jmp	0xba	; 0xba <__bad_interrupt>
   8:	0c 94 5d 00 	jmp	0xba	; 0xba <__bad_interrupt>
   c:	0c 94 5d 00 	jmp	0xba	; 0xba <__bad_interrupt>
  10:	0c 94 5d 00 	jmp	0xba	; 0xba <__bad_interrupt>
  14:	0c 94 5d 00 	jmp	0xba	; 0xba <__bad_interrupt>
  18:	0c 94 5d 00 	jmp	0xba	; 0xba <__bad_interrupt>
  1c:	0c 94 5d 00 	jmp	0xba	; 0xba <__bad_interrupt>
  20:	0c 94 5d 00 	jmp	0xba	; 0xba <__bad_interrupt>
  24:	0c 94 5d 00 	jmp	0xba	; 0xba <__bad_interrupt>
  28:	0c 94 5d 00 	jmp	0xba	; 0xba <__bad_interrupt>
  2c:	0c 94 5d 00 	jmp	0xba	; 0xba <__bad_interrupt>
  30:	0c 94 5d 00 	jmp	0xba	; 0xba <__bad_interrupt>
  34:	0c 94 5d 00 	jmp	0xba	; 0xba <__bad_interrupt>
  38:	0c 94 5d 00 	jmp	0xba	; 0xba <__bad_interrupt>
  3c:	0c 94 5d 00 	jmp	0xba	; 0xba <__bad_interrupt>
  40:	0c 94 5d 00 	jmp	0xba	; 0xba <__bad_interrupt>
  44:	0c 94 5d 00 	jmp	0xba	; 0xba <__bad_interrupt>
  48:	0c 94 5d 00 	jmp	0xba	; 0xba <__bad_interrupt>
  4c:	0c 94 5d 00 	jmp	0xba	; 0xba <__bad_interrupt>
  50:	0c 94 5d 00 	jmp	0xba	; 0xba <__bad_interrupt>
  54:	0c 94 5d 00 	jmp	0xba	; 0xba <__bad_interrupt>
  58:	0c 94 5d 00 	jmp	0xba	; 0xba <__bad_interrupt>
  5c:	0c 94 5d 00 	jmp	0xba	; 0xba <__bad_interrupt>
  60:	0c 94 5d 00 	jmp	0xba	; 0xba <__bad_interrupt>
  64:	0c 94 5d 00 	jmp	0xba	; 0xba <__bad_interrupt>
  68:	0c 94 5d 00 	jmp	0xba	; 0xba <__bad_interrupt>
  6c:	0c 94 5d 00 	jmp	0xba	; 0xba <__bad_interrupt>
  70:	0c 94 5d 00 	jmp	0xba	; 0xba <__bad_interrupt>
  74:	0c 94 5d 00 	jmp	0xba	; 0xba <__bad_interrupt>
  78:	0c 94 5d 00 	jmp	0xba	; 0xba <__bad_interrupt>
  7c:	0c 94 5d 00 	jmp	0xba	; 0xba <__bad_interrupt>
  80:	0c 94 5d 00 	jmp	0xba	; 0xba <__bad_interrupt>
  84:	0c 94 5d 00 	jmp	0xba	; 0xba <__bad_interrupt>
  88:	0c 94 5d 00 	jmp	0xba	; 0xba <__bad_interrupt>

0000008c <__ctors_end>:
  8c:	11 24       	eor	r1, r1
  8e:	1f be       	out	0x3f, r1	; 63
  90:	cf ef       	ldi	r28, 0xFF	; 255
  92:	d0 e1       	ldi	r29, 0x10	; 16
  94:	de bf       	out	0x3e, r29	; 62
  96:	cd bf       	out	0x3d, r28	; 61

00000098 <__do_copy_data>:
  98:	11 e0       	ldi	r17, 0x01	; 1
  9a:	a0 e0       	ldi	r26, 0x00	; 0
  9c:	b1 e0       	ldi	r27, 0x01	; 1
  9e:	ee ed       	ldi	r30, 0xDE	; 222
  a0:	f0 e0       	ldi	r31, 0x00	; 0
  a2:	00 e0       	ldi	r16, 0x00	; 0
  a4:	0b bf       	out	0x3b, r16	; 59
  a6:	02 c0       	rjmp	.+4      	; 0xac <__do_copy_data+0x14>
  a8:	07 90       	elpm	r0, Z+
  aa:	0d 92       	st	X+, r0
  ac:	a0 30       	cpi	r26, 0x00	; 0
  ae:	b1 07       	cpc	r27, r17
  b0:	d9 f7       	brne	.-10     	; 0xa8 <__do_copy_data+0x10>
  b2:	0e 94 5f 00 	call	0xbe	; 0xbe <main>
  b6:	0c 94 6d 00 	jmp	0xda	; 0xda <_exit>

000000ba <__bad_interrupt>:
  ba:	0c 94 00 00 	jmp	0	; 0x0 <__vectors>

000000be <main>:
#include<avr/io.h>
#include<util/delay.h>

void main()
{
DDRA=0XFF;
  be:	8f ef       	ldi	r24, 0xFF	; 255
  c0:	8a bb       	out	0x1a, r24	; 26
DDRB=0XFE;
  c2:	8e ef       	ldi	r24, 0xFE	; 254
  c4:	87 bb       	out	0x17, r24	; 23
while(1)
{
while(PINB!=0x01);
PORTA=0XFF;             //switch on
  c6:	9f ef       	ldi	r25, 0xFF	; 255
{
DDRA=0XFF;
DDRB=0XFE;
while(1)
{
while(PINB!=0x01);
  c8:	86 b3       	in	r24, 0x16	; 22
  ca:	81 30       	cpi	r24, 0x01	; 1
  cc:	e9 f7       	brne	.-6      	; 0xc8 <main+0xa>
PORTA=0XFF;             //switch on
  ce:	9b bb       	out	0x1b, r25	; 27
while(PINB!=0X00);
  d0:	86 b3       	in	r24, 0x16	; 22
  d2:	88 23       	and	r24, r24
  d4:	e9 f7       	brne	.-6      	; 0xd0 <main+0x12>
PORTA=0X00;            //switch off
  d6:	1b ba       	out	0x1b, r1	; 27
  d8:	f7 cf       	rjmp	.-18     	; 0xc8 <main+0xa>

000000da <_exit>:
  da:	f8 94       	cli

000000dc <__stop_program>:
  dc:	ff cf       	rjmp	.-2      	; 0xdc <__stop_program>
