
timer0interrupt.elf:     file format elf32-avr

Sections:
Idx Name          Size      VMA       LMA       File off  Algn
  0 .data         00000002  00800100  00000112  00000186  2**0
                  CONTENTS, ALLOC, LOAD, DATA
  1 .text         00000112  00000000  00000000  00000074  2**1
                  CONTENTS, ALLOC, LOAD, READONLY, CODE
  2 .debug_aranges 00000020  00000000  00000000  00000188  2**0
                  CONTENTS, READONLY, DEBUGGING
  3 .debug_pubnames 00000031  00000000  00000000  000001a8  2**0
                  CONTENTS, READONLY, DEBUGGING
  4 .debug_info   00000095  00000000  00000000  000001d9  2**0
                  CONTENTS, READONLY, DEBUGGING
  5 .debug_abbrev 00000063  00000000  00000000  0000026e  2**0
                  CONTENTS, READONLY, DEBUGGING
  6 .debug_line   000000b3  00000000  00000000  000002d1  2**0
                  CONTENTS, READONLY, DEBUGGING
  7 .debug_frame  00000030  00000000  00000000  00000384  2**2
                  CONTENTS, READONLY, DEBUGGING
  8 .debug_str    00000071  00000000  00000000  000003b4  2**0
                  CONTENTS, READONLY, DEBUGGING

Disassembly of section .text:

00000000 <__vectors>:
   0:	0c 94 46 00 	jmp	0x8c	; 0x8c <__ctors_end>
   4:	0c 94 5d 00 	jmp	0xba	; 0xba <__bad_interrupt>
   8:	0c 94 5d 00 	jmp	0xba	; 0xba <__bad_interrupt>
   c:	0c 94 5d 00 	jmp	0xba	; 0xba <__bad_interrupt>
  10:	0c 94 5d 00 	jmp	0xba	; 0xba <__bad_interrupt>
  14:	0c 94 5d 00 	jmp	0xba	; 0xba <__bad_interrupt>
  18:	0c 94 5d 00 	jmp	0xba	; 0xba <__bad_interrupt>
  1c:	0c 94 5d 00 	jmp	0xba	; 0xba <__bad_interrupt>
  20:	0c 94 5d 00 	jmp	0xba	; 0xba <__bad_interrupt>
  24:	0c 94 5d 00 	jmp	0xba	; 0xba <__bad_interrupt>
  28:	0c 94 5d 00 	jmp	0xba	; 0xba <__bad_interrupt>
  2c:	0c 94 5d 00 	jmp	0xba	; 0xba <__bad_interrupt>
  30:	0c 94 5d 00 	jmp	0xba	; 0xba <__bad_interrupt>
  34:	0c 94 5d 00 	jmp	0xba	; 0xba <__bad_interrupt>
  38:	0c 94 5d 00 	jmp	0xba	; 0xba <__bad_interrupt>
  3c:	0c 94 5d 00 	jmp	0xba	; 0xba <__bad_interrupt>
  40:	0c 94 5f 00 	jmp	0xbe	; 0xbe <__vector_16>
  44:	0c 94 5d 00 	jmp	0xba	; 0xba <__bad_interrupt>
  48:	0c 94 5d 00 	jmp	0xba	; 0xba <__bad_interrupt>
  4c:	0c 94 5d 00 	jmp	0xba	; 0xba <__bad_interrupt>
  50:	0c 94 5d 00 	jmp	0xba	; 0xba <__bad_interrupt>
  54:	0c 94 5d 00 	jmp	0xba	; 0xba <__bad_interrupt>
  58:	0c 94 5d 00 	jmp	0xba	; 0xba <__bad_interrupt>
  5c:	0c 94 5d 00 	jmp	0xba	; 0xba <__bad_interrupt>
  60:	0c 94 5d 00 	jmp	0xba	; 0xba <__bad_interrupt>
  64:	0c 94 5d 00 	jmp	0xba	; 0xba <__bad_interrupt>
  68:	0c 94 5d 00 	jmp	0xba	; 0xba <__bad_interrupt>
  6c:	0c 94 5d 00 	jmp	0xba	; 0xba <__bad_interrupt>
  70:	0c 94 5d 00 	jmp	0xba	; 0xba <__bad_interrupt>
  74:	0c 94 5d 00 	jmp	0xba	; 0xba <__bad_interrupt>
  78:	0c 94 5d 00 	jmp	0xba	; 0xba <__bad_interrupt>
  7c:	0c 94 5d 00 	jmp	0xba	; 0xba <__bad_interrupt>
  80:	0c 94 5d 00 	jmp	0xba	; 0xba <__bad_interrupt>
  84:	0c 94 5d 00 	jmp	0xba	; 0xba <__bad_interrupt>
  88:	0c 94 5d 00 	jmp	0xba	; 0xba <__bad_interrupt>

0000008c <__ctors_end>:
  8c:	11 24       	eor	r1, r1
  8e:	1f be       	out	0x3f, r1	; 63
  90:	cf ef       	ldi	r28, 0xFF	; 255
  92:	d0 e1       	ldi	r29, 0x10	; 16
  94:	de bf       	out	0x3e, r29	; 62
  96:	cd bf       	out	0x3d, r28	; 61

00000098 <__do_copy_data>:
  98:	11 e0       	ldi	r17, 0x01	; 1
  9a:	a0 e0       	ldi	r26, 0x00	; 0
  9c:	b1 e0       	ldi	r27, 0x01	; 1
  9e:	e2 e1       	ldi	r30, 0x12	; 18
  a0:	f1 e0       	ldi	r31, 0x01	; 1
  a2:	00 e0       	ldi	r16, 0x00	; 0
  a4:	0b bf       	out	0x3b, r16	; 59
  a6:	02 c0       	rjmp	.+4      	; 0xac <__do_copy_data+0x14>
  a8:	07 90       	elpm	r0, Z+
  aa:	0d 92       	st	X+, r0
  ac:	a2 30       	cpi	r26, 0x02	; 2
  ae:	b1 07       	cpc	r27, r17
  b0:	d9 f7       	brne	.-10     	; 0xa8 <__do_copy_data+0x10>
  b2:	0e 94 7d 00 	call	0xfa	; 0xfa <main>
  b6:	0c 94 87 00 	jmp	0x10e	; 0x10e <_exit>

000000ba <__bad_interrupt>:
  ba:	0c 94 00 00 	jmp	0	; 0x0 <__vectors>

000000be <__vector_16>:
#include<avr/io.h>
#include<util/delay.h>
#include<avr/interrupt.h>
int a=0xff;
ISR(TIMER0_OVF_vect)
{
  be:	1f 92       	push	r1
  c0:	0f 92       	push	r0
  c2:	0f b6       	in	r0, 0x3f	; 63
  c4:	0f 92       	push	r0
  c6:	11 24       	eor	r1, r1
  c8:	8f 93       	push	r24
  ca:	9f 93       	push	r25
PORTB=a;
  cc:	80 91 00 01 	lds	r24, 0x0100
  d0:	90 91 01 01 	lds	r25, 0x0101
  d4:	88 bb       	out	0x18, r24	; 24
a=~a;
  d6:	80 95       	com	r24
  d8:	90 95       	com	r25
  da:	90 93 01 01 	sts	0x0101, r25
  de:	80 93 00 01 	sts	0x0100, r24
TCNT0=0X82;
  e2:	82 e8       	ldi	r24, 0x82	; 130
  e4:	82 bf       	out	0x32, r24	; 50
TIFR|=0X01;
  e6:	86 b7       	in	r24, 0x36	; 54
  e8:	81 60       	ori	r24, 0x01	; 1
  ea:	86 bf       	out	0x36, r24	; 54
}
  ec:	9f 91       	pop	r25
  ee:	8f 91       	pop	r24
  f0:	0f 90       	pop	r0
  f2:	0f be       	out	0x3f, r0	; 63
  f4:	0f 90       	pop	r0
  f6:	1f 90       	pop	r1
  f8:	18 95       	reti

000000fa <main>:
void main()
{

DDRB=0XFF;
  fa:	8f ef       	ldi	r24, 0xFF	; 255
  fc:	87 bb       	out	0x17, r24	; 23
TCCR0=0X03;
  fe:	83 e0       	ldi	r24, 0x03	; 3
 100:	83 bf       	out	0x33, r24	; 51
TCNT0=0X82;
 102:	82 e8       	ldi	r24, 0x82	; 130
 104:	82 bf       	out	0x32, r24	; 50
TIMSK=0X01;
 106:	81 e0       	ldi	r24, 0x01	; 1
 108:	87 bf       	out	0x37, r24	; 55
sei();
 10a:	78 94       	sei
 10c:	ff cf       	rjmp	.-2      	; 0x10c <main+0x12>

0000010e <_exit>:
 10e:	f8 94       	cli

00000110 <__stop_program>:
 110:	ff cf       	rjmp	.-2      	; 0x110 <__stop_program>
