:100000000C9446000C945D000C945D000C945D0013
:100010000C945D000C945D000C945D000C945D00EC
:100020000C945D000C945D000C945D000C945D00DC
:100030000C945D000C945D000C945D000C945D00CC
:100040000C945D000C945D000C945D000C945D00BC
:100050000C945D000C945D000C945D000C945D00AC
:100060000C945D000C945D000C945D000C945D009C
:100070000C945D000C945D000C945D000C945D008C
:100080000C945D000C945D000C945D0011241FBE67
:10009000CFEFD0E1DEBFCDBF11E0A0E0B1E0ECE9F1
:1000A000F1E000E00BBF02C007900D92A030B10755
:1000B000D9F70E945F000C94CC000C94000088E4F7
:1000C0008093700084E08093740084EA80937400CD
:1000D0008091740080ED8093730094E89093740095
:1000E000809174001092730090937400809174005A
:1000F00082E180937300909374008091740080E19A
:1001000080937300909374008091740083E08093D7
:100110007300909374008091740081E08093730069
:1001200090937400209174008093730090937400F6
:100130008091740082E080937300909374008091AA
:10014000740085E180937300909374008091740033
:1001500084E980937400FFCF88E48093700084E08A
:10016000809374000895E4E7F0E084EA8083E081FE
:10017000089584E980937400089580937300E4E700
:10018000F0E084E88083E081089584E8809374003F
:0C0190008091730090E00895F894FFCF78
:00000001FF
