
usart.elf:     file format elf32-avr

Sections:
Idx Name          Size      VMA       LMA       File off  Algn
  0 .data         0000000a  00800100  0000011c  00000190  2**0
                  CONTENTS, ALLOC, LOAD, DATA
  1 .text         0000011c  00000000  00000000  00000074  2**1
                  CONTENTS, ALLOC, LOAD, READONLY, CODE
  2 .debug_aranges 00000020  00000000  00000000  0000019a  2**0
                  CONTENTS, READONLY, DEBUGGING
  3 .debug_pubnames 0000001b  00000000  00000000  000001ba  2**0
                  CONTENTS, READONLY, DEBUGGING
  4 .debug_info   000000a5  00000000  00000000  000001d5  2**0
                  CONTENTS, READONLY, DEBUGGING
  5 .debug_abbrev 00000076  00000000  00000000  0000027a  2**0
                  CONTENTS, READONLY, DEBUGGING
  6 .debug_line   00000089  00000000  00000000  000002f0  2**0
                  CONTENTS, READONLY, DEBUGGING
  7 .debug_frame  00000020  00000000  00000000  0000037c  2**2
                  CONTENTS, READONLY, DEBUGGING
  8 .debug_str    0000005b  00000000  00000000  0000039c  2**0
                  CONTENTS, READONLY, DEBUGGING

Disassembly of section .text:

00000000 <__vectors>:
   0:	0c 94 46 00 	jmp	0x8c	; 0x8c <__ctors_end>
   4:	0c 94 5d 00 	jmp	0xba	; 0xba <__bad_interrupt>
   8:	0c 94 5d 00 	jmp	0xba	; 0xba <__bad_interrupt>
   c:	0c 94 5d 00 	jmp	0xba	; 0xba <__bad_interrupt>
  10:	0c 94 5d 00 	jmp	0xba	; 0xba <__bad_interrupt>
  14:	0c 94 5d 00 	jmp	0xba	; 0xba <__bad_interrupt>
  18:	0c 94 5d 00 	jmp	0xba	; 0xba <__bad_interrupt>
  1c:	0c 94 5d 00 	jmp	0xba	; 0xba <__bad_interrupt>
  20:	0c 94 5d 00 	jmp	0xba	; 0xba <__bad_interrupt>
  24:	0c 94 5d 00 	jmp	0xba	; 0xba <__bad_interrupt>
  28:	0c 94 5d 00 	jmp	0xba	; 0xba <__bad_interrupt>
  2c:	0c 94 5d 00 	jmp	0xba	; 0xba <__bad_interrupt>
  30:	0c 94 5d 00 	jmp	0xba	; 0xba <__bad_interrupt>
  34:	0c 94 5d 00 	jmp	0xba	; 0xba <__bad_interrupt>
  38:	0c 94 5d 00 	jmp	0xba	; 0xba <__bad_interrupt>
  3c:	0c 94 5d 00 	jmp	0xba	; 0xba <__bad_interrupt>
  40:	0c 94 5d 00 	jmp	0xba	; 0xba <__bad_interrupt>
  44:	0c 94 5d 00 	jmp	0xba	; 0xba <__bad_interrupt>
  48:	0c 94 5d 00 	jmp	0xba	; 0xba <__bad_interrupt>
  4c:	0c 94 5d 00 	jmp	0xba	; 0xba <__bad_interrupt>
  50:	0c 94 5d 00 	jmp	0xba	; 0xba <__bad_interrupt>
  54:	0c 94 5d 00 	jmp	0xba	; 0xba <__bad_interrupt>
  58:	0c 94 5d 00 	jmp	0xba	; 0xba <__bad_interrupt>
  5c:	0c 94 5d 00 	jmp	0xba	; 0xba <__bad_interrupt>
  60:	0c 94 5d 00 	jmp	0xba	; 0xba <__bad_interrupt>
  64:	0c 94 5d 00 	jmp	0xba	; 0xba <__bad_interrupt>
  68:	0c 94 5d 00 	jmp	0xba	; 0xba <__bad_interrupt>
  6c:	0c 94 5d 00 	jmp	0xba	; 0xba <__bad_interrupt>
  70:	0c 94 5d 00 	jmp	0xba	; 0xba <__bad_interrupt>
  74:	0c 94 5d 00 	jmp	0xba	; 0xba <__bad_interrupt>
  78:	0c 94 5d 00 	jmp	0xba	; 0xba <__bad_interrupt>
  7c:	0c 94 5d 00 	jmp	0xba	; 0xba <__bad_interrupt>
  80:	0c 94 5d 00 	jmp	0xba	; 0xba <__bad_interrupt>
  84:	0c 94 5d 00 	jmp	0xba	; 0xba <__bad_interrupt>
  88:	0c 94 5d 00 	jmp	0xba	; 0xba <__bad_interrupt>

0000008c <__ctors_end>:
  8c:	11 24       	eor	r1, r1
  8e:	1f be       	out	0x3f, r1	; 63
  90:	cf ef       	ldi	r28, 0xFF	; 255
  92:	d0 e1       	ldi	r29, 0x10	; 16
  94:	de bf       	out	0x3e, r29	; 62
  96:	cd bf       	out	0x3d, r28	; 61

00000098 <__do_copy_data>:
  98:	11 e0       	ldi	r17, 0x01	; 1
  9a:	a0 e0       	ldi	r26, 0x00	; 0
  9c:	b1 e0       	ldi	r27, 0x01	; 1
  9e:	ec e1       	ldi	r30, 0x1C	; 28
  a0:	f1 e0       	ldi	r31, 0x01	; 1
  a2:	00 e0       	ldi	r16, 0x00	; 0
  a4:	0b bf       	out	0x3b, r16	; 59
  a6:	02 c0       	rjmp	.+4      	; 0xac <__do_copy_data+0x14>
  a8:	07 90       	elpm	r0, Z+
  aa:	0d 92       	st	X+, r0
  ac:	aa 30       	cpi	r26, 0x0A	; 10
  ae:	b1 07       	cpc	r27, r17
  b0:	d9 f7       	brne	.-10     	; 0xa8 <__do_copy_data+0x10>
  b2:	0e 94 5f 00 	call	0xbe	; 0xbe <main>
  b6:	0c 94 8c 00 	jmp	0x118	; 0x118 <_exit>

000000ba <__bad_interrupt>:
  ba:	0c 94 00 00 	jmp	0	; 0x0 <__vectors>

000000be <main>:
#include<avr/io.h>
#include<util/delay.h>

void main()
{
  be:	df 93       	push	r29
  c0:	cf 93       	push	r28
  c2:	cd b7       	in	r28, 0x3d	; 61
  c4:	de b7       	in	r29, 0x3e	; 62
  c6:	2a 97       	sbiw	r28, 0x0a	; 10
  c8:	0f b6       	in	r0, 0x3f	; 63
  ca:	f8 94       	cli
  cc:	de bf       	out	0x3e, r29	; 62
  ce:	0f be       	out	0x3f, r0	; 63
  d0:	cd bf       	out	0x3d, r28	; 61
int i;
char a[10]="pass";
  d2:	de 01       	movw	r26, r28
  d4:	11 96       	adiw	r26, 0x01	; 1
  d6:	e0 e0       	ldi	r30, 0x00	; 0
  d8:	f1 e0       	ldi	r31, 0x01	; 1
  da:	85 e0       	ldi	r24, 0x05	; 5
  dc:	01 90       	ld	r0, Z+
  de:	0d 92       	st	X+, r0
  e0:	81 50       	subi	r24, 0x01	; 1
  e2:	e1 f7       	brne	.-8      	; 0xdc <main+0x1e>
  e4:	fe 01       	movw	r30, r28
  e6:	36 96       	adiw	r30, 0x06	; 6
  e8:	85 e0       	ldi	r24, 0x05	; 5
  ea:	df 01       	movw	r26, r30
  ec:	1d 92       	st	X+, r1
  ee:	8a 95       	dec	r24
  f0:	e9 f7       	brne	.-6      	; 0xec <main+0x2e>
UBRR0L=0x19;
  f2:	89 e1       	ldi	r24, 0x19	; 25
  f4:	89 b9       	out	0x09, r24	; 9
UCSR0B=0X08;
  f6:	88 e0       	ldi	r24, 0x08	; 8
  f8:	8a b9       	out	0x0a, r24	; 10
  fa:	fe 01       	movw	r30, r28
  fc:	31 96       	adiw	r30, 0x01	; 1
for(i=0;i<10;i++)
  fe:	9e 01       	movw	r18, r28
 100:	25 5f       	subi	r18, 0xF5	; 245
 102:	3f 4f       	sbci	r19, 0xFF	; 255
{
UDR0=a[i];
 104:	80 81       	ld	r24, Z
 106:	8c b9       	out	0x0c, r24	; 12
while(UCSR0A!=0X60);
 108:	8b b1       	in	r24, 0x0b	; 11
 10a:	80 36       	cpi	r24, 0x60	; 96
 10c:	e9 f7       	brne	.-6      	; 0x108 <main+0x4a>
 10e:	31 96       	adiw	r30, 0x01	; 1
{
int i;
char a[10]="pass";
UBRR0L=0x19;
UCSR0B=0X08;
for(i=0;i<10;i++)
 110:	e2 17       	cp	r30, r18
 112:	f3 07       	cpc	r31, r19
 114:	b9 f7       	brne	.-18     	; 0x104 <main+0x46>
 116:	ff cf       	rjmp	.-2      	; 0x116 <main+0x58>

00000118 <_exit>:
 118:	f8 94       	cli

0000011a <__stop_program>:
 11a:	ff cf       	rjmp	.-2      	; 0x11a <__stop_program>
