:100000000C9446000C945D000C945D000C945D0013
:100010000C945D000C945D000C945D000C945D00EC
:100020000C945D000C945D000C945D000C945D00DC
:100030000C945D000C945D000C945D000C945D00CC
:100040000C945D000C945D000C945D000C945D00BC
:100050000C945D000C945D000C945D000C945D00AC
:100060000C945D000C945D000C945D000C945D009C
:100070000C945D000C945D000C945D000C945D008C
:100080000C945D000C945D000C945D0011241FBE67
:10009000CFEFD0E1DEBFCDBF11E0A0E0B1E0ECE3F7
:1000A000F1E000E00BBF02C007900D92A030B10755
:1000B000D9F70E947B000C949C000C940000C0981F
:1000C000C19880936200C29A80ED97E0FC0131975D
:1000D000F1F7C2980197F1F70895C09AC1988093FB
:1000E0006200C29A80ED97E0FC013197F1F7C29867
:1000F0000197F1F708958FEF87BB8093610081BB73
:1001000089E189B988E18AB988E390E00E945F00BB
:100110008CE090E00E945F0086E090E00E945F002B
:1001200080E890E00E945F0087E60E946D005F9B80
:0C013000FECF5F9A8CB1F9CFF894FFCF9E
:00000001FF
