
main.elf:     file format elf32-avr

Sections:
Idx Name          Size      VMA       LMA       File off  Algn
  0 .data         00000010  00800100  00000252  000002c6  2**0
                  CONTENTS, ALLOC, LOAD, DATA
  1 .text         00000252  00000000  00000000  00000074  2**1
                  CONTENTS, ALLOC, LOAD, READONLY, CODE
  2 .debug_aranges 00000020  00000000  00000000  000002d6  2**0
                  CONTENTS, READONLY, DEBUGGING
  3 .debug_pubnames 0000003f  00000000  00000000  000002f6  2**0
                  CONTENTS, READONLY, DEBUGGING
  4 .debug_info   000001c8  00000000  00000000  00000335  2**0
                  CONTENTS, READONLY, DEBUGGING
  5 .debug_abbrev 000000f9  00000000  00000000  000004fd  2**0
                  CONTENTS, READONLY, DEBUGGING
  6 .debug_line   000001c5  00000000  00000000  000005f6  2**0
                  CONTENTS, READONLY, DEBUGGING
  7 .debug_frame  00000060  00000000  00000000  000007bc  2**2
                  CONTENTS, READONLY, DEBUGGING
  8 .debug_str    000000b0  00000000  00000000  0000081c  2**0
                  CONTENTS, READONLY, DEBUGGING
  9 .debug_loc    000000f0  00000000  00000000  000008cc  2**0
                  CONTENTS, READONLY, DEBUGGING

Disassembly of section .text:

00000000 <__vectors>:
   0:	0c 94 46 00 	jmp	0x8c	; 0x8c <__ctors_end>
   4:	0c 94 5d 00 	jmp	0xba	; 0xba <__bad_interrupt>
   8:	0c 94 5d 00 	jmp	0xba	; 0xba <__bad_interrupt>
   c:	0c 94 5d 00 	jmp	0xba	; 0xba <__bad_interrupt>
  10:	0c 94 5d 00 	jmp	0xba	; 0xba <__bad_interrupt>
  14:	0c 94 5d 00 	jmp	0xba	; 0xba <__bad_interrupt>
  18:	0c 94 5d 00 	jmp	0xba	; 0xba <__bad_interrupt>
  1c:	0c 94 5d 00 	jmp	0xba	; 0xba <__bad_interrupt>
  20:	0c 94 5d 00 	jmp	0xba	; 0xba <__bad_interrupt>
  24:	0c 94 5d 00 	jmp	0xba	; 0xba <__bad_interrupt>
  28:	0c 94 5d 00 	jmp	0xba	; 0xba <__bad_interrupt>
  2c:	0c 94 5d 00 	jmp	0xba	; 0xba <__bad_interrupt>
  30:	0c 94 5d 00 	jmp	0xba	; 0xba <__bad_interrupt>
  34:	0c 94 5d 00 	jmp	0xba	; 0xba <__bad_interrupt>
  38:	0c 94 5d 00 	jmp	0xba	; 0xba <__bad_interrupt>
  3c:	0c 94 5d 00 	jmp	0xba	; 0xba <__bad_interrupt>
  40:	0c 94 5d 00 	jmp	0xba	; 0xba <__bad_interrupt>
  44:	0c 94 5d 00 	jmp	0xba	; 0xba <__bad_interrupt>
  48:	0c 94 5d 00 	jmp	0xba	; 0xba <__bad_interrupt>
  4c:	0c 94 5d 00 	jmp	0xba	; 0xba <__bad_interrupt>
  50:	0c 94 5d 00 	jmp	0xba	; 0xba <__bad_interrupt>
  54:	0c 94 5d 00 	jmp	0xba	; 0xba <__bad_interrupt>
  58:	0c 94 5d 00 	jmp	0xba	; 0xba <__bad_interrupt>
  5c:	0c 94 5d 00 	jmp	0xba	; 0xba <__bad_interrupt>
  60:	0c 94 5d 00 	jmp	0xba	; 0xba <__bad_interrupt>
  64:	0c 94 5d 00 	jmp	0xba	; 0xba <__bad_interrupt>
  68:	0c 94 5d 00 	jmp	0xba	; 0xba <__bad_interrupt>
  6c:	0c 94 5d 00 	jmp	0xba	; 0xba <__bad_interrupt>
  70:	0c 94 5d 00 	jmp	0xba	; 0xba <__bad_interrupt>
  74:	0c 94 5d 00 	jmp	0xba	; 0xba <__bad_interrupt>
  78:	0c 94 5d 00 	jmp	0xba	; 0xba <__bad_interrupt>
  7c:	0c 94 5d 00 	jmp	0xba	; 0xba <__bad_interrupt>
  80:	0c 94 5d 00 	jmp	0xba	; 0xba <__bad_interrupt>
  84:	0c 94 5d 00 	jmp	0xba	; 0xba <__bad_interrupt>
  88:	0c 94 5d 00 	jmp	0xba	; 0xba <__bad_interrupt>

0000008c <__ctors_end>:
  8c:	11 24       	eor	r1, r1
  8e:	1f be       	out	0x3f, r1	; 63
  90:	cf ef       	ldi	r28, 0xFF	; 255
  92:	d0 e1       	ldi	r29, 0x10	; 16
  94:	de bf       	out	0x3e, r29	; 62
  96:	cd bf       	out	0x3d, r28	; 61

00000098 <__do_copy_data>:
  98:	11 e0       	ldi	r17, 0x01	; 1
  9a:	a0 e0       	ldi	r26, 0x00	; 0
  9c:	b1 e0       	ldi	r27, 0x01	; 1
  9e:	e2 e5       	ldi	r30, 0x52	; 82
  a0:	f2 e0       	ldi	r31, 0x02	; 2
  a2:	00 e0       	ldi	r16, 0x00	; 0
  a4:	0b bf       	out	0x3b, r16	; 59
  a6:	02 c0       	rjmp	.+4      	; 0xac <__do_copy_data+0x14>
  a8:	07 90       	elpm	r0, Z+
  aa:	0d 92       	st	X+, r0
  ac:	a0 31       	cpi	r26, 0x10	; 16
  ae:	b1 07       	cpc	r27, r17
  b0:	d9 f7       	brne	.-10     	; 0xa8 <__do_copy_data+0x10>
  b2:	0e 94 80 00 	call	0x100	; 0x100 <main>
  b6:	0c 94 27 01 	jmp	0x24e	; 0x24e <_exit>

000000ba <__bad_interrupt>:
  ba:	0c 94 00 00 	jmp	0	; 0x0 <__vectors>

000000be <getc>:
      }
	  }
   
   char getc()
   {
      while((UCSR0A&0x80)!=0x80);
  be:	5f 9b       	sbis	0x0b, 7	; 11
  c0:	fe cf       	rjmp	.-4      	; 0xbe <getc>
      return(UDR0);
  c2:	8c b1       	in	r24, 0x0c	; 12
   }
  c4:	08 95       	ret

000000c6 <putc>:
   
      void putc(char ch)
      {
         UCSR0A|=0x80;
  c6:	5f 9a       	sbi	0x0b, 7	; 11
         UDR0=ch;
  c8:	8c b9       	out	0x0c, r24	; 12
         while((UCSR0A&0x40)!=0x40);
  ca:	5e 9b       	sbis	0x0b, 6	; 11
  cc:	fe cf       	rjmp	.-4      	; 0xca <putc+0x4>
        UCSR0A|=0x40;
  ce:	5e 9a       	sbi	0x0b, 6	; 11
      }
  d0:	08 95       	ret

000000d2 <puts>:
   
   void puts(char *i)
   {
  d2:	cf 93       	push	r28
  d4:	df 93       	push	r29
  d6:	ec 01       	movw	r28, r24
  d8:	03 c0       	rjmp	.+6      	; 0xe0 <puts+0xe>
   
      while(*i)
      {   
      putc(*i++);
  da:	21 96       	adiw	r28, 0x01	; 1
  dc:	0e 94 63 00 	call	0xc6	; 0xc6 <putc>
      }
   
   void puts(char *i)
   {
   
      while(*i)
  e0:	88 81       	ld	r24, Y
  e2:	88 23       	and	r24, r24
  e4:	d1 f7       	brne	.-12     	; 0xda <puts+0x8>
      {   
      putc(*i++);
      
      }
      
   }
  e6:	df 91       	pop	r29
  e8:	cf 91       	pop	r28
  ea:	08 95       	ret

000000ec <gets>:
   
      void gets(char *j)
      {
  ec:	fc 01       	movw	r30, r24
      }
	  }
   
   char getc()
   {
      while((UCSR0A&0x80)!=0x80);
  ee:	5f 9b       	sbis	0x0b, 7	; 11
  f0:	fe cf       	rjmp	.-4      	; 0xee <gets+0x2>
      return(UDR0);
  f2:	8c b1       	in	r24, 0x0c	; 12
      {
      char c;
         while(1)
         {
         c=getc();
            if(c==0x0D)
  f4:	8d 30       	cpi	r24, 0x0D	; 13
  f6:	11 f0       	breq	.+4      	; 0xfc <gets+0x10>
            break;
         else   
         *j++=c;
  f8:	81 93       	st	Z+, r24
  fa:	f9 cf       	rjmp	.-14     	; 0xee <gets+0x2>
         
         }
         *j='\0';
  fc:	10 82       	st	Z, r1
         
      }
  fe:	08 95       	ret

00000100 <main>:
#include<avr/io.h>
#include<util/delay.h>
#include<string.h>
void main()
      {
 100:	2f 92       	push	r2
 102:	3f 92       	push	r3
 104:	4f 92       	push	r4
 106:	5f 92       	push	r5
 108:	6f 92       	push	r6
 10a:	7f 92       	push	r7
 10c:	8f 92       	push	r8
 10e:	9f 92       	push	r9
 110:	af 92       	push	r10
 112:	bf 92       	push	r11
 114:	cf 92       	push	r12
 116:	df 92       	push	r13
 118:	ef 92       	push	r14
 11a:	ff 92       	push	r15
 11c:	0f 93       	push	r16
 11e:	1f 93       	push	r17
 120:	df 93       	push	r29
 122:	cf 93       	push	r28
 124:	cd b7       	in	r28, 0x3d	; 61
 126:	de b7       	in	r29, 0x3e	; 62
 128:	65 97       	sbiw	r28, 0x15	; 21
 12a:	0f b6       	in	r0, 0x3f	; 63
 12c:	f8 94       	cli
 12e:	de bf       	out	0x3e, r29	; 62
 130:	0f be       	out	0x3f, r0	; 63
 132:	cd bf       	out	0x3d, r28	; 61
	  int p1,p2,p3,p4;
	  char pass1[]="123",pass2[]="456",pass3[]="789",pass4[]="0AB",pass5[5];
 134:	80 91 00 01 	lds	r24, 0x0100
 138:	90 91 01 01 	lds	r25, 0x0101
 13c:	a0 91 02 01 	lds	r26, 0x0102
 140:	b0 91 03 01 	lds	r27, 0x0103
 144:	89 83       	std	Y+1, r24	; 0x01
 146:	9a 83       	std	Y+2, r25	; 0x02
 148:	ab 83       	std	Y+3, r26	; 0x03
 14a:	bc 83       	std	Y+4, r27	; 0x04
 14c:	80 91 04 01 	lds	r24, 0x0104
 150:	90 91 05 01 	lds	r25, 0x0105
 154:	a0 91 06 01 	lds	r26, 0x0106
 158:	b0 91 07 01 	lds	r27, 0x0107
 15c:	8d 83       	std	Y+5, r24	; 0x05
 15e:	9e 83       	std	Y+6, r25	; 0x06
 160:	af 83       	std	Y+7, r26	; 0x07
 162:	b8 87       	std	Y+8, r27	; 0x08
 164:	80 91 08 01 	lds	r24, 0x0108
 168:	90 91 09 01 	lds	r25, 0x0109
 16c:	a0 91 0a 01 	lds	r26, 0x010A
 170:	b0 91 0b 01 	lds	r27, 0x010B
 174:	89 87       	std	Y+9, r24	; 0x09
 176:	9a 87       	std	Y+10, r25	; 0x0a
 178:	ab 87       	std	Y+11, r26	; 0x0b
 17a:	bc 87       	std	Y+12, r27	; 0x0c
 17c:	80 91 0c 01 	lds	r24, 0x010C
 180:	90 91 0d 01 	lds	r25, 0x010D
 184:	a0 91 0e 01 	lds	r26, 0x010E
 188:	b0 91 0f 01 	lds	r27, 0x010F
 18c:	8d 87       	std	Y+13, r24	; 0x0d
 18e:	9e 87       	std	Y+14, r25	; 0x0e
 190:	af 87       	std	Y+15, r26	; 0x0f
 192:	b8 8b       	std	Y+16, r27	; 0x10
      UBRR0L=25;
 194:	89 e1       	ldi	r24, 0x19	; 25
 196:	89 b9       	out	0x09, r24	; 9
      UBRR0H=00;
 198:	10 92 90 00 	sts	0x0090, r1
      UCSR0B=0x18;
 19c:	88 e1       	ldi	r24, 0x18	; 24
 19e:	8a b9       	out	0x0a, r24	; 10
      UCSR0C=0x06;
 1a0:	86 e0       	ldi	r24, 0x06	; 6
 1a2:	80 93 95 00 	sts	0x0095, r24
	  DDRA=0XFF;
 1a6:	8f ef       	ldi	r24, 0xFF	; 255
 1a8:	8a bb       	out	0x1a, r24	; 26
	  PORTA=0X00;
 1aa:	1b ba       	out	0x1b, r1	; 27
	while(1)
	{
    	
	gets(pass5);
 1ac:	31 e1       	ldi	r19, 0x11	; 17
 1ae:	a3 2e       	mov	r10, r19
 1b0:	b1 2c       	mov	r11, r1
 1b2:	ac 0e       	add	r10, r28
 1b4:	bd 1e       	adc	r11, r29
	p1=strcmp(pass1,pass5);
 1b6:	1e 01       	movw	r2, r28
 1b8:	08 94       	sec
 1ba:	21 1c       	adc	r2, r1
 1bc:	31 1c       	adc	r3, r1
	p2=strcmp(pass2,pass5);
 1be:	25 e0       	ldi	r18, 0x05	; 5
 1c0:	42 2e       	mov	r4, r18
 1c2:	51 2c       	mov	r5, r1
 1c4:	4c 0e       	add	r4, r28
 1c6:	5d 1e       	adc	r5, r29
	p3=strcmp(pass3,pass5);
 1c8:	99 e0       	ldi	r25, 0x09	; 9
 1ca:	69 2e       	mov	r6, r25
 1cc:	71 2c       	mov	r7, r1
 1ce:	6c 0e       	add	r6, r28
 1d0:	7d 1e       	adc	r7, r29
	p4=strcmp(pass4,pass5);
 1d2:	8d e0       	ldi	r24, 0x0D	; 13
 1d4:	88 2e       	mov	r8, r24
 1d6:	91 2c       	mov	r9, r1
 1d8:	8c 0e       	add	r8, r28
 1da:	9d 1e       	adc	r9, r29
	  DDRA=0XFF;
	  PORTA=0X00;
	while(1)
	{
    	
	gets(pass5);
 1dc:	c5 01       	movw	r24, r10
 1de:	0e 94 76 00 	call	0xec	; 0xec <gets>
	p1=strcmp(pass1,pass5);
 1e2:	c1 01       	movw	r24, r2
 1e4:	b5 01       	movw	r22, r10
 1e6:	0e 94 1e 01 	call	0x23c	; 0x23c <strcmp>
 1ea:	8c 01       	movw	r16, r24
	p2=strcmp(pass2,pass5);
 1ec:	c2 01       	movw	r24, r4
 1ee:	b5 01       	movw	r22, r10
 1f0:	0e 94 1e 01 	call	0x23c	; 0x23c <strcmp>
 1f4:	6c 01       	movw	r12, r24
	p3=strcmp(pass3,pass5);
 1f6:	c3 01       	movw	r24, r6
 1f8:	b5 01       	movw	r22, r10
 1fa:	0e 94 1e 01 	call	0x23c	; 0x23c <strcmp>
 1fe:	7c 01       	movw	r14, r24
	p4=strcmp(pass4,pass5);
 200:	c4 01       	movw	r24, r8
 202:	b5 01       	movw	r22, r10
 204:	0e 94 1e 01 	call	0x23c	; 0x23c <strcmp>
 208:	9c 01       	movw	r18, r24
	if(p1==0)
 20a:	01 2b       	or	r16, r17
 20c:	21 f4       	brne	.+8      	; 0x216 <main+0x116>
	{
	PORTA^=(1<<PA0);
 20e:	8b b3       	in	r24, 0x1b	; 27
 210:	91 e0       	ldi	r25, 0x01	; 1
 212:	89 27       	eor	r24, r25
 214:	8b bb       	out	0x1b, r24	; 27
	}
	if(p2==0)
 216:	cd 28       	or	r12, r13
 218:	21 f4       	brne	.+8      	; 0x222 <main+0x122>
	{
	PORTA^=(1<<PA1);
 21a:	8b b3       	in	r24, 0x1b	; 27
 21c:	92 e0       	ldi	r25, 0x02	; 2
 21e:	89 27       	eor	r24, r25
 220:	8b bb       	out	0x1b, r24	; 27
	}
	if(p3==0)
 222:	ef 28       	or	r14, r15
 224:	21 f4       	brne	.+8      	; 0x22e <main+0x12e>
	{
	PORTA^=(1<<PA2);
 226:	8b b3       	in	r24, 0x1b	; 27
 228:	94 e0       	ldi	r25, 0x04	; 4
 22a:	89 27       	eor	r24, r25
 22c:	8b bb       	out	0x1b, r24	; 27
	}
	if(p4==0)
 22e:	23 2b       	or	r18, r19
 230:	a9 f6       	brne	.-86     	; 0x1dc <main+0xdc>
	{
	PORTA^=(1<<PA3);
 232:	8b b3       	in	r24, 0x1b	; 27
 234:	98 e0       	ldi	r25, 0x08	; 8
 236:	89 27       	eor	r24, r25
 238:	8b bb       	out	0x1b, r24	; 27
 23a:	d0 cf       	rjmp	.-96     	; 0x1dc <main+0xdc>

0000023c <strcmp>:
 23c:	fb 01       	movw	r30, r22
 23e:	dc 01       	movw	r26, r24
 240:	8d 91       	ld	r24, X+
 242:	01 90       	ld	r0, Z+
 244:	80 19       	sub	r24, r0
 246:	01 10       	cpse	r0, r1
 248:	d9 f3       	breq	.-10     	; 0x240 <strcmp+0x4>
 24a:	99 0b       	sbc	r25, r25
 24c:	08 95       	ret

0000024e <_exit>:
 24e:	f8 94       	cli

00000250 <__stop_program>:
 250:	ff cf       	rjmp	.-2      	; 0x250 <__stop_program>
