CCS PCM C Compiler, Version 4.057, 17685               06-Nov-14 11:36

               Filename: changeonint.lst

               ROM used: 142 words (3%)
                         Largest free fragment is 2048
               RAM used: 15 (8%) at main() level
                         16 (8%) worst case
               Stack:    1 worst case (0 in main + 1 for interrupts)

*
0000:  MOVLW  00
0001:  MOVWF  0A
0002:  GOTO   055
0003:  NOP
0004:  BTFSS  0A.3
0005:  BCF    0A.4
0006:  BTFSC  0A.3
0007:  BSF    0A.4
0008:  BCF    0A.3
0009:  BTFSC  03.5
000A:  GOTO   00F
000B:  MOVWF  25
000C:  SWAPF  03,W
000D:  MOVWF  26
000E:  GOTO   014
000F:  BCF    03.5
0010:  MOVWF  25
0011:  SWAPF  03,W
0012:  MOVWF  26
0013:  BSF    26.1
0014:  BTFSS  0A.4
0015:  BCF    0A.3
0016:  BTFSC  0A.4
0017:  BSF    0A.3
0018:  BCF    0A.4
0019:  MOVF   0A,W
001A:  MOVWF  2D
001B:  CLRF   0A
001C:  BCF    03.7
001D:  SWAPF  25,F
001E:  MOVF   04,W
001F:  MOVWF  27
0020:  MOVF   20,W
0021:  MOVWF  28
0022:  MOVF   21,W
0023:  MOVWF  29
0024:  MOVF   22,W
0025:  MOVWF  2A
0026:  MOVF   23,W
0027:  MOVWF  2B
0028:  MOVF   24,W
0029:  MOVWF  2C
002A:  BCF    03.5
002B:  BTFSS  0B.3
002C:  GOTO   02F
002D:  BTFSC  0B.0
002E:  GOTO   044
002F:  MOVF   27,W
0030:  MOVWF  04
0031:  MOVF   28,W
0032:  MOVWF  20
0033:  MOVF   29,W
0034:  MOVWF  21
0035:  MOVF   2A,W
0036:  MOVWF  22
0037:  MOVF   2B,W
0038:  MOVWF  23
0039:  MOVF   2C,W
003A:  MOVWF  24
003B:  MOVF   2D,W
003C:  MOVWF  0A
003D:  SWAPF  26,W
003E:  MOVWF  03
003F:  BCF    03.5
0040:  SWAPF  25,W
0041:  BTFSC  26.1
0042:  BSF    03.5
0043:  RETFIE
0044:  BCF    0A.3
0045:  GOTO   046
.................... #include "E:\JIJU\pic c\sample\changeonint.h" 
.................... #include <16F73.h> 
.................... //////// Standard Header file for the PIC16F73 device //////////////// 
.................... #device PIC16F73 
.................... #list 
....................  
.................... #device adc=8 
....................  
.................... #FUSES NOWDT                 	//No Watch Dog Timer 
.................... #FUSES XT                    	//Crystal osc <= 4mhz 
.................... #FUSES NOPUT                 	//No Power Up Timer 
.................... #FUSES NOPROTECT             	//Code not protected from reading 
.................... #FUSES NOBROWNOUT            	//No brownout reset 
....................  
.................... #use delay(clock=4000000) 
.................... #use rs232(baud=9600,parity=N,xmit=PIN_C6,rcv=PIN_C7,bits=8) 
....................  
....................  
.................... int a=0; 
*
0064:  BCF    03.5
0065:  CLRF   2E
.................... #int_RB 
.................... void  RB_isr(void)  
.................... { 
.................... a=input_b()&0xf0; 
*
0046:  MOVLW  FF
0047:  BSF    03.5
0048:  MOVWF  06
0049:  BCF    03.5
004A:  MOVF   06,W
004B:  ANDLW  F0
004C:  MOVWF  2E
.................... output_c(a); 
004D:  BSF    03.5
004E:  CLRF   07
004F:  BCF    03.5
0050:  MOVF   2E,W
0051:  MOVWF  07
.................... //delay_ms(100); 
.................... } 
....................  
....................  
....................  
0052:  BCF    0B.0
0053:  BCF    0A.3
0054:  GOTO   02F
.................... void main() 
.................... { 
0055:  CLRF   04
0056:  MOVLW  1F
0057:  ANDWF  03,F
0058:  MOVLW  19
0059:  BSF    03.5
005A:  MOVWF  19
005B:  MOVLW  A6
005C:  MOVWF  18
005D:  MOVLW  90
005E:  BCF    03.5
005F:  MOVWF  18
0060:  BSF    03.5
0061:  BSF    1F.0
0062:  BSF    1F.1
0063:  BSF    1F.2
....................  
....................    setup_adc_ports(NO_ANALOGS); 
*
0066:  BSF    03.5
0067:  BSF    1F.0
0068:  BSF    1F.1
0069:  BSF    1F.2
....................    setup_adc(ADC_OFF); 
006A:  BCF    03.5
006B:  BCF    1F.0
....................    setup_spi(SPI_SS_DISABLED); 
006C:  BCF    14.5
006D:  BSF    03.5
006E:  BCF    07.5
006F:  BSF    07.4
0070:  BCF    07.3
0071:  MOVLW  01
0072:  BCF    03.5
0073:  MOVWF  14
0074:  MOVLW  00
0075:  BSF    03.5
0076:  MOVWF  14
....................    setup_timer_0(RTCC_INTERNAL|RTCC_DIV_1); 
0077:  MOVF   01,W
0078:  ANDLW  C7
0079:  IORLW  08
007A:  MOVWF  01
....................    setup_timer_1(T1_DISABLED); 
007B:  BCF    03.5
007C:  CLRF   10
....................    setup_timer_2(T2_DISABLED,0,1); 
007D:  MOVLW  00
007E:  MOVWF  21
007F:  MOVWF  12
0080:  MOVLW  00
0081:  BSF    03.5
0082:  MOVWF  12
....................    enable_interrupts(INT_RB); 
0083:  BCF    03.5
0084:  BSF    0B.3
....................    enable_interrupts(GLOBAL); 
0085:  MOVLW  C0
0086:  IORWF  0B,F
.................... set_tris_c(0x00); 
0087:  MOVLW  00
0088:  BSF    03.5
0089:  MOVWF  07
.................... set_tris_b(0xf0); 
008A:  MOVLW  F0
008B:  MOVWF  06
.................... while(1); 
008C:  GOTO   08C
....................    // TODO: USER CODE!! 
....................  
.................... } 
008D:  SLEEP

Configuration Fuses:
   Word  1: 3FB9   XT NOWDT NOPUT NOPROTECT NOBROWNOUT
