CCS PCM C Compiler, Version 4.057, 17685               18-Nov-14 12:12

               Filename: i2ctx.lst

               ROM used: 246 words (6%)
                         Largest free fragment is 2048
               RAM used: 7 (4%) at main() level
                         10 (5%) worst case
               Stack:    1 locations

*
0000:  MOVLW  00
0001:  MOVWF  0A
0002:  GOTO   06C
0003:  NOP
.................... #include "E:\JIJU\pic c\sample\i2ctx.h" 
.................... #include <16F73.h> 
.................... //////// Standard Header file for the PIC16F73 device //////////////// 
.................... #device PIC16F73 
.................... #list 
....................  
.................... #device adc=8 
....................  
.................... #FUSES NOWDT                 	//No Watch Dog Timer 
.................... #FUSES XT                    	//Crystal osc <= 4mhz 
.................... #FUSES NOPUT                 	//No Power Up Timer 
.................... #FUSES NOPROTECT             	//Code not protected from reading 
.................... #FUSES NOBROWNOUT            	//No brownout reset 
....................  
.................... #use delay(clock=4000000) 
.................... #use rs232(baud=9600,parity=N,xmit=PIN_C6,rcv=PIN_C7,bits=8) 
.................... #use i2c(Master,Fast,sda=PIN_C4,scl=PIN_C3) 
0004:  MOVLW  08
0005:  MOVWF  21
0006:  NOP
0007:  BCF    07.3
0008:  BSF    03.5
0009:  BCF    07.3
000A:  NOP
000B:  BCF    03.5
000C:  RLF    28,F
000D:  BCF    07.4
000E:  BTFSS  03.0
000F:  GOTO   013
0010:  BSF    03.5
0011:  BSF    07.4
0012:  BCF    03.5
0013:  BTFSC  03.0
0014:  GOTO   018
0015:  BSF    03.5
0016:  BCF    07.4
0017:  BCF    03.5
0018:  BSF    03.5
0019:  BSF    07.3
001A:  BCF    03.5
001B:  BTFSS  07.3
001C:  GOTO   01B
001D:  DECFSZ 21,F
001E:  GOTO   006
001F:  NOP
0020:  BCF    07.3
0021:  BSF    03.5
0022:  BCF    07.3
0023:  NOP
0024:  BSF    07.4
0025:  NOP
0026:  NOP
0027:  BSF    07.3
0028:  BCF    03.5
0029:  BTFSS  07.3
002A:  GOTO   029
002B:  CLRF   21
002C:  NOP
002D:  BTFSC  07.4
002E:  BSF    21.0
002F:  BCF    07.3
0030:  BSF    03.5
0031:  BCF    07.3
0032:  BCF    03.5
0033:  BCF    07.4
0034:  BSF    03.5
0035:  BCF    07.4
0036:  BCF    03.5
0037:  RETLW  00
0038:  MOVLW  08
0039:  MOVWF  29
003A:  MOVF   20,W
003B:  MOVWF  2A
003C:  BSF    03.5
003D:  BSF    07.4
003E:  NOP
003F:  BSF    07.3
0040:  BCF    03.5
0041:  BTFSS  07.3
0042:  GOTO   041
0043:  BTFSC  07.4
0044:  BSF    03.0
0045:  BTFSS  07.4
0046:  BCF    03.0
0047:  RLF    21,F
0048:  NOP
0049:  BSF    03.5
004A:  BCF    07.3
004B:  BCF    03.5
004C:  BCF    07.3
004D:  DECFSZ 29,F
004E:  GOTO   03C
004F:  BSF    03.5
0050:  BSF    07.4
0051:  NOP
0052:  BCF    03.5
0053:  BCF    07.4
0054:  MOVF   2A,W
0055:  BTFSC  03.2
0056:  GOTO   05A
0057:  BSF    03.5
0058:  BCF    07.4
0059:  BCF    03.5
005A:  NOP
005B:  BSF    03.5
005C:  BSF    07.3
005D:  BCF    03.5
005E:  BTFSS  07.3
005F:  GOTO   05E
0060:  NOP
0061:  BCF    07.3
0062:  BSF    03.5
0063:  BCF    07.3
0064:  NOP
0065:  BCF    03.5
0066:  BCF    07.4
0067:  BSF    03.5
0068:  BCF    07.4
0069:  BCF    03.5
006A:  BCF    0A.3
006B:  GOTO   0E1 (RETURN)
....................  
....................  
....................  
....................  
.................... void main() 
.................... { 
006C:  CLRF   04
006D:  MOVLW  1F
006E:  ANDWF  03,F
006F:  MOVLW  19
0070:  BSF    03.5
0071:  MOVWF  19
0072:  MOVLW  A6
0073:  MOVWF  18
0074:  MOVLW  90
0075:  BCF    03.5
0076:  MOVWF  18
0077:  BSF    03.5
0078:  BSF    1F.0
0079:  BSF    1F.1
007A:  BSF    1F.2
....................    unsigned int a,i; 
....................  
....................    setup_adc_ports(NO_ANALOGS); 
007B:  BSF    1F.0
007C:  BSF    1F.1
007D:  BSF    1F.2
....................    setup_adc(ADC_OFF); 
007E:  BCF    03.5
007F:  BCF    1F.0
....................    setup_timer_0(RTCC_INTERNAL|RTCC_DIV_1); 
0080:  BSF    03.5
0081:  MOVF   01,W
0082:  ANDLW  C7
0083:  IORLW  08
0084:  MOVWF  01
....................    setup_timer_1(T1_DISABLED); 
0085:  BCF    03.5
0086:  CLRF   10
....................    setup_timer_2(T2_DISABLED,0,1); 
0087:  MOVLW  00
0088:  MOVWF  21
0089:  MOVWF  12
008A:  MOVLW  00
008B:  BSF    03.5
008C:  MOVWF  12
....................  
....................    i2c_start(); 
008D:  BSF    07.4
008E:  NOP
008F:  BSF    07.3
0090:  NOP
0091:  BCF    03.5
0092:  BCF    07.4
0093:  BSF    03.5
0094:  BCF    07.4
0095:  NOP
0096:  BCF    03.5
0097:  BCF    07.3
0098:  BSF    03.5
0099:  BCF    07.3
....................    i2c_write(0xa0);      
009A:  MOVLW  A0
009B:  BCF    03.5
009C:  MOVWF  28
009D:  CALL   004
....................    i2c_write(0x00); 
009E:  CLRF   28
009F:  CALL   004
....................    i2c_write(0xf0); 
00A0:  MOVLW  F0
00A1:  MOVWF  28
00A2:  CALL   004
....................    i2c_stop(); 
00A3:  BSF    03.5
00A4:  BCF    07.4
00A5:  NOP
00A6:  BSF    07.3
00A7:  BCF    03.5
00A8:  BTFSS  07.3
00A9:  GOTO   0A8
00AA:  NOP
00AB:  GOTO   0AC
00AC:  NOP
00AD:  BSF    03.5
00AE:  BSF    07.4
00AF:  NOP
....................     
....................    do 
....................    { 
....................  
....................       i2c_start(); 
00B0:  BSF    07.4
00B1:  NOP
00B2:  BSF    07.3
00B3:  NOP
00B4:  BCF    03.5
00B5:  BCF    07.4
00B6:  BSF    03.5
00B7:  BCF    07.4
00B8:  NOP
00B9:  BCF    03.5
00BA:  BCF    07.3
00BB:  BSF    03.5
00BC:  BCF    07.3
....................       a=i2c_write(0xa0); 
00BD:  MOVLW  A0
00BE:  BCF    03.5
00BF:  MOVWF  28
00C0:  CALL   004
00C1:  MOVF   21,W
00C2:  MOVWF  26
....................    }while(a!=0); 
00C3:  MOVF   26,F
00C4:  BTFSC  03.2
00C5:  GOTO   0C8
00C6:  BSF    03.5
00C7:  GOTO   0B0
....................     
....................    i2c_write(0x00); 
00C8:  CLRF   28
00C9:  CALL   004
....................    i2c_start(); 
00CA:  BSF    03.5
00CB:  BSF    07.4
00CC:  NOP
00CD:  BSF    07.3
00CE:  NOP
00CF:  BCF    03.5
00D0:  BTFSS  07.3
00D1:  GOTO   0D0
00D2:  BCF    07.4
00D3:  BSF    03.5
00D4:  BCF    07.4
00D5:  NOP
00D6:  BCF    03.5
00D7:  BCF    07.3
00D8:  BSF    03.5
00D9:  BCF    07.3
....................    i2c_write(0xa1);      
00DA:  MOVLW  A1
00DB:  BCF    03.5
00DC:  MOVWF  28
00DD:  CALL   004
....................    a = i2c_read(); 
00DE:  MOVLW  01
00DF:  MOVWF  20
00E0:  GOTO   038
00E1:  MOVF   21,W
00E2:  MOVWF  26
....................    i2c_stop(); 
00E3:  BSF    03.5
00E4:  BCF    07.4
00E5:  NOP
00E6:  BSF    07.3
00E7:  BCF    03.5
00E8:  BTFSS  07.3
00E9:  GOTO   0E8
00EA:  NOP
00EB:  GOTO   0EC
00EC:  NOP
00ED:  BSF    03.5
00EE:  BSF    07.4
00EF:  NOP
....................    output_b(a); 
00F0:  CLRF   06
00F1:  BCF    03.5
00F2:  MOVF   26,W
00F3:  MOVWF  06
....................    while(1); 
00F4:  GOTO   0F4
.................... } 
00F5:  SLEEP

Configuration Fuses:
   Word  1: 3FB9   XT NOWDT NOPUT NOPROTECT NOBROWNOUT
