CCS PCM C Compiler, Version 4.057, 17685               06-Nov-14 13:05

               Filename: timer1sec.lst

               ROM used: 145 words (4%)
                         Largest free fragment is 2048
               RAM used: 16 (8%) at main() level
                         16 (8%) worst case
               Stack:    1 worst case (0 in main + 1 for interrupts)

*
0000:  MOVLW  00
0001:  MOVWF  0A
0002:  GOTO   057
0003:  NOP
0004:  BTFSS  0A.3
0005:  BCF    0A.4
0006:  BTFSC  0A.3
0007:  BSF    0A.4
0008:  BCF    0A.3
0009:  BTFSC  03.5
000A:  GOTO   00F
000B:  MOVWF  25
000C:  SWAPF  03,W
000D:  MOVWF  26
000E:  GOTO   014
000F:  BCF    03.5
0010:  MOVWF  25
0011:  SWAPF  03,W
0012:  MOVWF  26
0013:  BSF    26.1
0014:  BTFSS  0A.4
0015:  BCF    0A.3
0016:  BTFSC  0A.4
0017:  BSF    0A.3
0018:  BCF    0A.4
0019:  MOVF   0A,W
001A:  MOVWF  2D
001B:  CLRF   0A
001C:  BCF    03.7
001D:  SWAPF  25,F
001E:  MOVF   04,W
001F:  MOVWF  27
0020:  MOVF   20,W
0021:  MOVWF  28
0022:  MOVF   21,W
0023:  MOVWF  29
0024:  MOVF   22,W
0025:  MOVWF  2A
0026:  MOVF   23,W
0027:  MOVWF  2B
0028:  MOVF   24,W
0029:  MOVWF  2C
002A:  BCF    03.5
002B:  BTFSS  0B.5
002C:  GOTO   02F
002D:  BTFSC  0B.2
002E:  GOTO   044
002F:  MOVF   27,W
0030:  MOVWF  04
0031:  MOVF   28,W
0032:  MOVWF  20
0033:  MOVF   29,W
0034:  MOVWF  21
0035:  MOVF   2A,W
0036:  MOVWF  22
0037:  MOVF   2B,W
0038:  MOVWF  23
0039:  MOVF   2C,W
003A:  MOVWF  24
003B:  MOVF   2D,W
003C:  MOVWF  0A
003D:  SWAPF  26,W
003E:  MOVWF  03
003F:  BCF    03.5
0040:  SWAPF  25,W
0041:  BTFSC  26.1
0042:  BSF    03.5
0043:  RETFIE
0044:  BCF    0A.3
0045:  GOTO   046
.................... #include "E:\JIJU\pic c\sample\timer1sec.h" 
.................... #include <16F73.h> 
.................... //////// Standard Header file for the PIC16F73 device //////////////// 
.................... #device PIC16F73 
.................... #list 
....................  
.................... #device adc=8 
....................  
.................... #FUSES NOWDT                 	//No Watch Dog Timer 
.................... #FUSES XT                    	//Crystal osc <= 4mhz 
.................... #FUSES NOPUT                 	//No Power Up Timer 
.................... #FUSES NOPROTECT             	//Code not protected from reading 
.................... #FUSES NOBROWNOUT            	//No brownout reset 
....................  
.................... #use delay(clock=4000000) 
.................... #use rs232(baud=9600,parity=N,xmit=PIN_C6,rcv=PIN_C7,bits=8) 
....................  
....................  
.................... int a=0;int i; 
*
0066:  BCF    03.5
0067:  CLRF   2E
.................... #int_RTCC 
.................... void  RTCC_isr(void)  
.................... { 
.................... i++; 
*
0046:  INCF   2F,F
.................... if(i==2) 
0047:  MOVF   2F,W
0048:  SUBLW  02
0049:  BTFSS  03.2
004A:  GOTO   052
.................... { 
.................... a=~a; 
004B:  COMF   2E,F
.................... output_b(a); 
004C:  BSF    03.5
004D:  CLRF   06
004E:  BCF    03.5
004F:  MOVF   2E,W
0050:  MOVWF  06
.................... i=0; 
0051:  CLRF   2F
.................... } 
.................... set_timer0(60); 
0052:  MOVLW  3C
0053:  MOVWF  01
.................... } 
....................  
....................  
....................  
0054:  BCF    0B.2
0055:  BCF    0A.3
0056:  GOTO   02F
.................... void main() 
.................... { 
0057:  CLRF   04
0058:  MOVLW  1F
0059:  ANDWF  03,F
005A:  MOVLW  19
005B:  BSF    03.5
005C:  MOVWF  19
005D:  MOVLW  A6
005E:  MOVWF  18
005F:  MOVLW  90
0060:  BCF    03.5
0061:  MOVWF  18
0062:  BSF    03.5
0063:  BSF    1F.0
0064:  BSF    1F.1
0065:  BSF    1F.2
....................  
....................    setup_adc_ports(NO_ANALOGS); 
*
0068:  BSF    03.5
0069:  BSF    1F.0
006A:  BSF    1F.1
006B:  BSF    1F.2
....................    setup_adc(ADC_OFF); 
006C:  BCF    03.5
006D:  BCF    1F.0
....................    setup_spi(SPI_SS_DISABLED); 
006E:  BCF    14.5
006F:  BSF    03.5
0070:  BCF    07.5
0071:  BSF    07.4
0072:  BCF    07.3
0073:  MOVLW  01
0074:  BCF    03.5
0075:  MOVWF  14
0076:  MOVLW  00
0077:  BSF    03.5
0078:  MOVWF  14
....................    setup_timer_0(RTCC_INTERNAL|RTCC_DIV_256); 
0079:  MOVF   01,W
007A:  ANDLW  C0
007B:  IORLW  07
007C:  MOVWF  01
....................    setup_timer_1(T1_DISABLED); 
007D:  BCF    03.5
007E:  CLRF   10
....................    setup_timer_2(T2_DISABLED,0,1); 
007F:  MOVLW  00
0080:  MOVWF  21
0081:  MOVWF  12
0082:  MOVLW  00
0083:  BSF    03.5
0084:  MOVWF  12
....................    enable_interrupts(INT_RTCC); 
0085:  BCF    03.5
0086:  BSF    0B.5
....................    enable_interrupts(GLOBAL); 
0087:  MOVLW  C0
0088:  IORWF  0B,F
.................... set_tris_b(0x00); 
0089:  MOVLW  00
008A:  BSF    03.5
008B:  MOVWF  06
.................... set_timer0(60); 
008C:  MOVLW  3C
008D:  BCF    03.5
008E:  MOVWF  01
.................... while(1); 
008F:  GOTO   08F
....................    // TODO: USER CODE!! 
....................  
.................... } 
0090:  SLEEP

Configuration Fuses:
   Word  1: 3FB9   XT NOWDT NOPUT NOPROTECT NOBROWNOUT
