CCS PCM C Compiler, Version 4.057, 17685               06-Nov-14 12:05

               Filename: timeronint.lst

               ROM used: 137 words (3%)
                         Largest free fragment is 2048
               RAM used: 15 (8%) at main() level
                         15 (8%) worst case
               Stack:    1 worst case (0 in main + 1 for interrupts)

*
0000:  MOVLW  00
0001:  MOVWF  0A
0002:  GOTO   04F
0003:  NOP
0004:  BTFSS  0A.3
0005:  BCF    0A.4
0006:  BTFSC  0A.3
0007:  BSF    0A.4
0008:  BCF    0A.3
0009:  BTFSC  03.5
000A:  GOTO   00F
000B:  MOVWF  25
000C:  SWAPF  03,W
000D:  MOVWF  26
000E:  GOTO   014
000F:  BCF    03.5
0010:  MOVWF  25
0011:  SWAPF  03,W
0012:  MOVWF  26
0013:  BSF    26.1
0014:  BTFSS  0A.4
0015:  BCF    0A.3
0016:  BTFSC  0A.4
0017:  BSF    0A.3
0018:  BCF    0A.4
0019:  MOVF   0A,W
001A:  MOVWF  2D
001B:  CLRF   0A
001C:  BCF    03.7
001D:  SWAPF  25,F
001E:  MOVF   04,W
001F:  MOVWF  27
0020:  MOVF   20,W
0021:  MOVWF  28
0022:  MOVF   21,W
0023:  MOVWF  29
0024:  MOVF   22,W
0025:  MOVWF  2A
0026:  MOVF   23,W
0027:  MOVWF  2B
0028:  MOVF   24,W
0029:  MOVWF  2C
002A:  BCF    03.5
002B:  BTFSS  0B.5
002C:  GOTO   02F
002D:  BTFSC  0B.2
002E:  GOTO   044
002F:  MOVF   27,W
0030:  MOVWF  04
0031:  MOVF   28,W
0032:  MOVWF  20
0033:  MOVF   29,W
0034:  MOVWF  21
0035:  MOVF   2A,W
0036:  MOVWF  22
0037:  MOVF   2B,W
0038:  MOVWF  23
0039:  MOVF   2C,W
003A:  MOVWF  24
003B:  MOVF   2D,W
003C:  MOVWF  0A
003D:  SWAPF  26,W
003E:  MOVWF  03
003F:  BCF    03.5
0040:  SWAPF  25,W
0041:  BTFSC  26.1
0042:  BSF    03.5
0043:  RETFIE
0044:  BCF    0A.3
0045:  GOTO   046
.................... #include "E:\JIJU\pic c\sample\timeronint.h" 
.................... #include <16F73.h> 
.................... //////// Standard Header file for the PIC16F73 device //////////////// 
.................... #device PIC16F73 
.................... #list 
....................  
.................... #device adc=8 
....................  
.................... #FUSES NOWDT                 	//No Watch Dog Timer 
.................... #FUSES XT                    	//Crystal osc <= 4mhz 
.................... #FUSES NOPUT                 	//No Power Up Timer 
.................... #FUSES NOPROTECT             	//Code not protected from reading 
.................... #FUSES NOBROWNOUT            	//No brownout reset 
....................  
.................... #use delay(clock=4000000) 
.................... #use rs232(baud=9600,parity=N,xmit=PIN_C6,rcv=PIN_C7,bits=8) 
....................  
....................  
.................... int a=0x00; 
*
005E:  BCF    03.5
005F:  CLRF   2E
.................... #int_RTCC 
.................... void  RTCC_isr(void)  
.................... { 
.................... a=~a; 
*
0046:  COMF   2E,F
.................... output_b(a); 
0047:  BSF    03.5
0048:  CLRF   06
0049:  BCF    03.5
004A:  MOVF   2E,W
004B:  MOVWF  06
.................... } 
....................  
....................  
....................  
004C:  BCF    0B.2
004D:  BCF    0A.3
004E:  GOTO   02F
.................... void main() 
.................... { 
004F:  CLRF   04
0050:  MOVLW  1F
0051:  ANDWF  03,F
0052:  MOVLW  19
0053:  BSF    03.5
0054:  MOVWF  19
0055:  MOVLW  A6
0056:  MOVWF  18
0057:  MOVLW  90
0058:  BCF    03.5
0059:  MOVWF  18
005A:  BSF    03.5
005B:  BSF    1F.0
005C:  BSF    1F.1
005D:  BSF    1F.2
....................  
....................    setup_adc_ports(NO_ANALOGS); 
*
0060:  BSF    03.5
0061:  BSF    1F.0
0062:  BSF    1F.1
0063:  BSF    1F.2
....................    setup_adc(ADC_OFF); 
0064:  BCF    03.5
0065:  BCF    1F.0
....................    setup_spi(SPI_SS_DISABLED); 
0066:  BCF    14.5
0067:  BSF    03.5
0068:  BCF    07.5
0069:  BSF    07.4
006A:  BCF    07.3
006B:  MOVLW  01
006C:  BCF    03.5
006D:  MOVWF  14
006E:  MOVLW  00
006F:  BSF    03.5
0070:  MOVWF  14
....................    setup_timer_0(RTCC_INTERNAL|RTCC_DIV_4); 
0071:  MOVF   01,W
0072:  ANDLW  C0
0073:  IORLW  01
0074:  MOVWF  01
....................    setup_timer_1(T1_DISABLED); 
0075:  BCF    03.5
0076:  CLRF   10
....................    setup_timer_2(T2_DISABLED,0,1); 
0077:  MOVLW  00
0078:  MOVWF  21
0079:  MOVWF  12
007A:  MOVLW  00
007B:  BSF    03.5
007C:  MOVWF  12
....................    enable_interrupts(INT_RTCC); 
007D:  BCF    03.5
007E:  BSF    0B.5
....................    enable_interrupts(GLOBAL); 
007F:  MOVLW  C0
0080:  IORWF  0B,F
....................    set_tris_b(0x00); 
0081:  MOVLW  00
0082:  BSF    03.5
0083:  MOVWF  06
....................    set_timer0(0x05); 
0084:  MOVLW  05
0085:  BCF    03.5
0086:  MOVWF  01
....................     
.................... while(1); 
0087:  GOTO   087
....................    // TODO: USER CODE!! 
....................  
.................... } 
0088:  SLEEP

Configuration Fuses:
   Word  1: 3FB9   XT NOWDT NOPUT NOPROTECT NOBROWNOUT
