
switch.elf:     file format elf32-avr

Sections:
Idx Name          Size      VMA       LMA       File off  Algn
  0 .text         00000124  00000000  00000000  00000054  2**1
                  CONTENTS, ALLOC, LOAD, READONLY, CODE
  1 .debug_aranges 00000020  00000000  00000000  00000178  2**0
                  CONTENTS, READONLY, DEBUGGING
  2 .debug_pubnames 0000001b  00000000  00000000  00000198  2**0
                  CONTENTS, READONLY, DEBUGGING
  3 .debug_info   00000098  00000000  00000000  000001b3  2**0
                  CONTENTS, READONLY, DEBUGGING
  4 .debug_abbrev 00000068  00000000  00000000  0000024b  2**0
                  CONTENTS, READONLY, DEBUGGING
  5 .debug_line   000000e6  00000000  00000000  000002b3  2**0
                  CONTENTS, READONLY, DEBUGGING
  6 .debug_frame  00000020  00000000  00000000  0000039c  2**2
                  CONTENTS, READONLY, DEBUGGING
  7 .debug_str    0000005c  00000000  00000000  000003bc  2**0
                  CONTENTS, READONLY, DEBUGGING
  8 .debug_loc    00000038  00000000  00000000  00000418  2**0
                  CONTENTS, READONLY, DEBUGGING

Disassembly of section .text:

00000000 <__vectors>:
   0:	0c 94 46 00 	jmp	0x8c	; 0x8c <__ctors_end>
   4:	0c 94 5d 00 	jmp	0xba	; 0xba <__bad_interrupt>
   8:	0c 94 5d 00 	jmp	0xba	; 0xba <__bad_interrupt>
   c:	0c 94 5d 00 	jmp	0xba	; 0xba <__bad_interrupt>
  10:	0c 94 5d 00 	jmp	0xba	; 0xba <__bad_interrupt>
  14:	0c 94 5d 00 	jmp	0xba	; 0xba <__bad_interrupt>
  18:	0c 94 5d 00 	jmp	0xba	; 0xba <__bad_interrupt>
  1c:	0c 94 5d 00 	jmp	0xba	; 0xba <__bad_interrupt>
  20:	0c 94 5d 00 	jmp	0xba	; 0xba <__bad_interrupt>
  24:	0c 94 5d 00 	jmp	0xba	; 0xba <__bad_interrupt>
  28:	0c 94 5d 00 	jmp	0xba	; 0xba <__bad_interrupt>
  2c:	0c 94 5d 00 	jmp	0xba	; 0xba <__bad_interrupt>
  30:	0c 94 5d 00 	jmp	0xba	; 0xba <__bad_interrupt>
  34:	0c 94 5d 00 	jmp	0xba	; 0xba <__bad_interrupt>
  38:	0c 94 5d 00 	jmp	0xba	; 0xba <__bad_interrupt>
  3c:	0c 94 5d 00 	jmp	0xba	; 0xba <__bad_interrupt>
  40:	0c 94 5d 00 	jmp	0xba	; 0xba <__bad_interrupt>
  44:	0c 94 5d 00 	jmp	0xba	; 0xba <__bad_interrupt>
  48:	0c 94 5d 00 	jmp	0xba	; 0xba <__bad_interrupt>
  4c:	0c 94 5d 00 	jmp	0xba	; 0xba <__bad_interrupt>
  50:	0c 94 5d 00 	jmp	0xba	; 0xba <__bad_interrupt>
  54:	0c 94 5d 00 	jmp	0xba	; 0xba <__bad_interrupt>
  58:	0c 94 5d 00 	jmp	0xba	; 0xba <__bad_interrupt>
  5c:	0c 94 5d 00 	jmp	0xba	; 0xba <__bad_interrupt>
  60:	0c 94 5d 00 	jmp	0xba	; 0xba <__bad_interrupt>
  64:	0c 94 5d 00 	jmp	0xba	; 0xba <__bad_interrupt>
  68:	0c 94 5d 00 	jmp	0xba	; 0xba <__bad_interrupt>
  6c:	0c 94 5d 00 	jmp	0xba	; 0xba <__bad_interrupt>
  70:	0c 94 5d 00 	jmp	0xba	; 0xba <__bad_interrupt>
  74:	0c 94 5d 00 	jmp	0xba	; 0xba <__bad_interrupt>
  78:	0c 94 5d 00 	jmp	0xba	; 0xba <__bad_interrupt>
  7c:	0c 94 5d 00 	jmp	0xba	; 0xba <__bad_interrupt>
  80:	0c 94 5d 00 	jmp	0xba	; 0xba <__bad_interrupt>
  84:	0c 94 5d 00 	jmp	0xba	; 0xba <__bad_interrupt>
  88:	0c 94 5d 00 	jmp	0xba	; 0xba <__bad_interrupt>

0000008c <__ctors_end>:
  8c:	11 24       	eor	r1, r1
  8e:	1f be       	out	0x3f, r1	; 63
  90:	cf ef       	ldi	r28, 0xFF	; 255
  92:	d0 e1       	ldi	r29, 0x10	; 16
  94:	de bf       	out	0x3e, r29	; 62
  96:	cd bf       	out	0x3d, r28	; 61

00000098 <__do_copy_data>:
  98:	11 e0       	ldi	r17, 0x01	; 1
  9a:	a0 e0       	ldi	r26, 0x00	; 0
  9c:	b1 e0       	ldi	r27, 0x01	; 1
  9e:	e4 e2       	ldi	r30, 0x24	; 36
  a0:	f1 e0       	ldi	r31, 0x01	; 1
  a2:	00 e0       	ldi	r16, 0x00	; 0
  a4:	0b bf       	out	0x3b, r16	; 59
  a6:	02 c0       	rjmp	.+4      	; 0xac <__do_copy_data+0x14>
  a8:	07 90       	elpm	r0, Z+
  aa:	0d 92       	st	X+, r0
  ac:	a0 30       	cpi	r26, 0x00	; 0
  ae:	b1 07       	cpc	r27, r17
  b0:	d9 f7       	brne	.-10     	; 0xa8 <__do_copy_data+0x10>
  b2:	0e 94 5f 00 	call	0xbe	; 0xbe <main>
  b6:	0c 94 90 00 	jmp	0x120	; 0x120 <_exit>

000000ba <__bad_interrupt>:
  ba:	0c 94 00 00 	jmp	0	; 0x0 <__vectors>

000000be <main>:
#include<avr/io.h>
#include<util/delay.h>
void main()
{
DDRA=0XFF;
  be:	8f ef       	ldi	r24, 0xFF	; 255
  c0:	8a bb       	out	0x1a, r24	; 26
DDRE=0XFC;
  c2:	8c ef       	ldi	r24, 0xFC	; 252
  c4:	82 b9       	out	0x02, r24	; 2
  c6:	21 e0       	ldi	r18, 0x01	; 1
  c8:	30 e0       	ldi	r19, 0x00	; 0
  ca:	80 e8       	ldi	r24, 0x80	; 128
  cc:	90 e0       	ldi	r25, 0x00	; 0
case 0x02:
PORTA=b;
b=b>>1;
if(b==0x01)
{
PORTA=b;
  ce:	71 e0       	ldi	r23, 0x01	; 1
}
a=0x01;
break;

case 0x03:
PORTA=0XFF;
  d0:	6f ef       	ldi	r22, 0xFF	; 255
case 0x01:
PORTA=a;
a=a<<1;
if(a==0x80)
{
PORTA=a;
  d2:	50 e8       	ldi	r21, 0x80	; 128
  d4:	02 c0       	rjmp	.+4      	; 0xda <main+0x1c>
#include<avr/io.h>
#include<util/delay.h>
void main()
{
DDRA=0XFF;
DDRE=0XFC;
  d6:	80 e8       	ldi	r24, 0x80	; 128
  d8:	90 e0       	ldi	r25, 0x00	; 0
int m,a=0x01,b=0x80;
while(1)
{

m=PINE;
  da:	41 b1       	in	r20, 0x01	; 1
switch (m)
  dc:	41 30       	cpi	r20, 0x01	; 1
  de:	49 f0       	breq	.+18     	; 0xf2 <main+0x34>
  e0:	41 30       	cpi	r20, 0x01	; 1
  e2:	28 f0       	brcs	.+10     	; 0xee <main+0x30>
  e4:	42 30       	cpi	r20, 0x02	; 2
  e6:	69 f0       	breq	.+26     	; 0x102 <main+0x44>
  e8:	43 30       	cpi	r20, 0x03	; 3
  ea:	b9 f7       	brne	.-18     	; 0xda <main+0x1c>
  ec:	15 c0       	rjmp	.+42     	; 0x118 <main+0x5a>
{
case 0x00:
PORTA=0X00;
  ee:	1b ba       	out	0x1b, r1	; 27
  f0:	14 c0       	rjmp	.+40     	; 0x11a <main+0x5c>
a=0x01;
b=0x80;
break;

case 0x01:
PORTA=a;
  f2:	2b bb       	out	0x1b, r18	; 27
a=a<<1;
  f4:	22 0f       	add	r18, r18
  f6:	33 1f       	adc	r19, r19
if(a==0x80)
  f8:	20 38       	cpi	r18, 0x80	; 128
  fa:	31 05       	cpc	r19, r1
  fc:	61 f7       	brne	.-40     	; 0xd6 <main+0x18>
{
PORTA=a;
  fe:	5b bb       	out	0x1b, r21	; 27
 100:	0c c0       	rjmp	.+24     	; 0x11a <main+0x5c>
}
b=0x80;
break;

case 0x02:
PORTA=b;
 102:	8b bb       	out	0x1b, r24	; 27
b=b>>1;
 104:	95 95       	asr	r25
 106:	87 95       	ror	r24
if(b==0x01)
 108:	81 30       	cpi	r24, 0x01	; 1
 10a:	91 05       	cpc	r25, r1
 10c:	19 f0       	breq	.+6      	; 0x114 <main+0x56>
 10e:	21 e0       	ldi	r18, 0x01	; 1
 110:	30 e0       	ldi	r19, 0x00	; 0
 112:	e3 cf       	rjmp	.-58     	; 0xda <main+0x1c>
{
PORTA=b;
 114:	7b bb       	out	0x1b, r23	; 27
 116:	01 c0       	rjmp	.+2      	; 0x11a <main+0x5c>
}
a=0x01;
break;

case 0x03:
PORTA=0XFF;
 118:	6b bb       	out	0x1b, r22	; 27
 11a:	21 e0       	ldi	r18, 0x01	; 1
 11c:	30 e0       	ldi	r19, 0x00	; 0
 11e:	db cf       	rjmp	.-74     	; 0xd6 <main+0x18>

00000120 <_exit>:
 120:	f8 94       	cli

00000122 <__stop_program>:
 122:	ff cf       	rjmp	.-2      	; 0x122 <__stop_program>
