:100000000C9446000C945D000C945D000C945D0013
:100010000C945D000C945D000C945D000C945D00EC
:100020000C945D000C945D000C945D000C945D00DC
:100030000C945D000C945D000C945D000C945D00CC
:100040000C945D000C945D000C945D000C945D00BC
:100050000C945D000C945D000C945D000C945D00AC
:100060000C945D000C945D000C945D000C945D009C
:100070000C945D000C945D000C945D000C945D008C
:100080000C945D000C945D000C945D0011241FBE67
:10009000CFEFD0E1DEBFCDBF11E0A0E0B1E0E4E200
:1000A000F1E000E00BBF02C007900D92A030B10755
:1000B000D9F70E945F000C9490000C9400008FEF21
:1000C0008ABB8CEF82B921E030E080E890E071E0FB
:1000D0006FEF50E802C080E890E041B1413049F054
:1000E000413028F0423069F04330B9F715C01BBAEF
:1000F00014C02BBB220F331F2038310561F75BBBC7
:100100000CC08BBB959587958130910519F021E046
:1001100030E0E3CF7BBB01C06BBB21E030E0DBCF45
:04012000F894FFCF81
:00000001FF
